:100000000C942A000C94C8040C94EF040C9416056C
:100010000C9437060C9460060C9493050C94BC0564
:100020000C94E5050C940E060C9441050C946A059D
:100030000C9447000C9489060C94B4060C94DD06CD
:100040000C945E030C9447000C9447000C944700FA
:100050000C94470011241FBECFE5D8E0DEBFCDBF12
:1000600010E0A0E6B0E0E8E3F0E102C005900D92F8
:10007000AC36B107D9F720E0ACE6B0E001C01D9284
:10008000A439B207E1F70E944E000C941A080C94B0
:10009000000067E081E00E946D0408950E942D0336
:1000A0000E9480020E9498000E943D050E94A104C7
:1000B00060E089E490E00E94B30441E067E081E001
:1000C0000E948C0360E080E00E94EC020E943003FA
:1000D000282F30E040E050E060E070E080E090E009
:1000E0000E94FB0260E081E00E94EC020E9410038B
:1000F000282F392F40E050E060E070E080E090E091
:100100000E94FB020E94B900C82F66E081E00E94B5
:10011000EC02CF3F19F08C2F0E94E9022FE986E80C
:1001200091E0215080409040E1F700C00000CACF2C
:10013000CF93C0E00BC041E06C2F81E00E948C03A4
:1001400040E06C2F81E00E94E403CF5FC33098F35E
:10015000C3E00BC040E06C2F81E00E948C0341E0C3
:100160006C2F81E00E94E403CF5FC73098F3CF91FA
:1001700008950F931F93CF93DF93D0E010E00FEF1C
:1001800033C040E06D2F81E00E94E403C3E022C051
:100190006C2F81E00E943C0481111BC06C2F81E018
:1001A0000E943C048823D1F38C2F90E00397FC013C
:1001B000EE0FFF1FE80FF91FE05AFF4FED0FF11D83
:1001C00000818FE39CE90197F1F700C0000011E086
:1001D00003C0CF5FC730E0F241E06D2F81E00E94A5
:1001E000E403113019F0DF5FD33058F2802FDF9134
:1001F000CF911F910F9108952F923F924F925F924E
:100200006F927F928F929F92AF92BF92CF92DF9226
:10021000EF92FF920F931F93CF93DF93CDB7DEB78B
:100220002D970FB6F894DEBF0FBECDBF2B87832E60
:100230004C875D87562E472E382E292EFE0131968B
:100240008AE0DF011D928A95E9F72B854C855D8553
:10025000832DA0E00E940E0884F48DE28983832D13
:100260000E94C7072B87832E4C875D87562E472E0B
:10027000382E292E9924939442C0912C40C0692C89
:10028000712C0F2EFAE0AF2EF02DB12CC12CD12CF9
:10029000E12CF12C00E010E02B85382D4C855D859C
:1002A000652D742D832D922D0E943707E1E0F0E03B
:1002B000EC0FFD1FE60DF71D205D20832B85382DEB
:1002C0004C855D85652D742D832D922D0E943907F7
:1002D0002B87832E4C875D87562E472E382E292E4E
:1002E000A0E00E940E0851F4F301319661E070E045
:1002F0006C0F7D1FE60FF71F108205C0939478E006
:10030000791508F0BCCF89818D3221F480936C007F
:1003100041E001C040E050E017C0F901E51BF109E0
:10032000A1E0B0E0AC0FBD1FEA0FFB1F6081FC0134
:10033000E459FF4F60835F5F8217930721F4FC014C
:10034000E359FF4F10824F5F842F042E000C990B4E
:10035000292D30E02817390704F78CE690E02D9618
:100360000FB6F894DEBF0FBECDBFDF91CF911F91C6
:100370000F91FF90EF90DF90CF90BF90AF909F9044
:100380008F907F906F905F904F903F902F90089547
:10039000CF93C82F40E067E080E00E94E40340E094
:1003A00064E080E00E94E40341E066E080E00E94B7
:1003B000E403C4FB442740F964E082E00E94E403C4
:1003C000C5FB442740F965E082E00E94E403C6FBD8
:1003D000442740F966E082E00E94E4034C2F441F6A
:1003E0004427441F67E082E00E94E40340E066E0A7
:1003F00080E00E94E40341E066E080E00E94E403C4
:100400004C2F417064E082E00E94E403C1FB44276A
:1004100040F965E082E00E94E403C2FB442740F912
:1004200066E082E00E94E403C3FB442740F967E0F2
:1004300082E00E94E40340E066E080E00E94E40382
:10044000CF910895CF93C82F41E066E080E00E94ED
:10045000E40341E067E080E00E94E40340E064E000
:1004600080E00E94E403C4FB442740F964E082E09A
:100470000E94E403C5FB442740F965E082E00E9446
:10048000E403C6FB442740F966E082E00E94E403EF
:100490004C2F441F4427441F67E082E00E94E4037E
:1004A00040E066E080E00E94E40341E066E080E036
:1004B0000E94E4034C2F417064E082E00E94E40358
:1004C000C1FB442740F965E082E00E94E403C2FBDF
:1004D000442740F966E082E00E94E403C3FB44271E
:1004E00040F967E082E00E94E40340E066E080E0DB
:1004F0000E94E40383E08A95F1F70000CF9108950C
:100500008BE49DE10197F1F700C0000041E066E057
:1005100080E00E948C0341E064E080E00E948C0354
:1005200041E067E080E00E948C0341E064E082E00B
:100530000E948C0341E065E082E00E948C0341E070
:1005400066E082E00E948C0341E067E082E00E9466
:100550008C0340E067E080E00E94E40340E064E058
:1005600080E00E94E40341E066E080E00E94E40352
:1005700040E064E082E00E94E40341E065E082E064
:100580000E94E40340E066E082E00E94E40340E071
:1005900067E082E00E94E40340E066E080E00E94C1
:1005A000E40388E20E94C8019DE09A95F1F78CE08F
:1005B0000E94C8018DE08A95F1F781E00E94C80190
:1005C0008EE791E00197F1F7000086E00E94C801F4
:1005D00008950E9422020895882319F0813031F095
:1005E000089580E8860F0E94C801089580EC860F68
:1005F0000E94C80108950F931F93CF930E94FC009F
:100600008C01C0E003C00E94E902CF5FF801EC0F4B
:10061000F11D80818111F7CFCF911F910F91089526
:1006200081E00E9452039C01A8E8B3E10E942807E0
:100630002FEF33E040E050E00E94060768E873E1E6
:1006400080E090E00E940607C901880F991F880F7B
:10065000991F820F931F059708950E9440030895E4
:1006600080E00E9452039C01A4EFB1E00E942807A1
:100670002FEF33E040E050E00E940607822F0895FC
:1006800086B1887F86B986B1876086B986B18F7D4D
:1006900086B987B18F7380648F7D87B986B1806892
:1006A00086B9089597B1907E892B87B986B1806409
:1006B00086B93699FECF84B195B108951F920F92F5
:1006C0000FB60F9211242F933F934F935F936F9325
:1006D0007F938F939F93AF93BF93EF93FF93E0919B
:1006E0007600F0917700309731F084B195B109959B
:1006F00086B1877F86B9FF91EF91BF91AF919F91AE
:100700008F917F916F915F914F913F912F910F90BA
:100710000FBE0F901F9018958130D1F028F08230D5
:1007200059F18330E9F108952AB381E090E0062E73
:1007300002C0880F991F0A94E2F750E002C0440FEC
:10074000551F6A95E2F780958223482B4ABB08958E
:1007500027B381E090E0062E02C0880F991F0A940B
:10076000E2F750E002C0440F551F6A95E2F780950A
:100770008223482B47BB089524B381E090E0062EE6
:1007800002C0880F991F0A94E2F750E002C0440F9C
:10079000551F6A95E2F780958223482B44BB089544
:1007A00021B381E090E0062E02C0880F991F0A94C1
:1007B000E2F750E002C0440F551F6A95E2F78095BA
:1007C0008223482B41BB08958130D1F028F082303C
:1007D00059F18330E9F108952BB381E090E0062EC2
:1007E00002C0880F991F0A94E2F750E002C0440F3C
:1007F000551F6A95E2F780958223482B4BBB0895DD
:1008000028B381E090E0062E02C0880F991F0A9459
:10081000E2F750E002C0440F551F6A95E2F7809559
:100820008223482B48BB089525B381E090E0062E33
:1008300002C0880F991F0A94E2F750E002C0440FEB
:10084000551F6A95E2F780958223482B45BB089592
:1008500022B381E090E0062E02C0880F991F0A940F
:10086000E2F750E002C0440F551F6A95E2F7809509
:100870008223482B42BB0895813081F028F08230DA
:10088000B9F08330F9F027C089B390E002C09595A4
:1008900087956A95E2F7982F91701DC086B390E016
:1008A00002C0959587956A95E2F7982F917013C0CD
:1008B00083B390E002C0959587956A95E2F7982FEB
:1008C000917009C080B390E002C0959587956A95B4
:1008D000E2F7982F9170892F0895813089F028F0E0
:1008E0008230C9F0833011F1089581E090E002C0B8
:1008F000880F991F6A95E2F79BB389278BBB0895F0
:1009000081E090E002C0880F991F6A95E2F798B3E2
:10091000892788BB089581E090E002C0880F991F65
:100920006A95E2F795B3892785BB089581E090E049
:1009300002C0880F991F6A95E2F792B3892782BB9C
:10094000089540E062E083E00E948C0341E062E0B1
:1009500083E00E94E4038BB780648BBF85B78C7FF4
:10096000826085BF0895613049F018F0623059F017
:1009700008959093910080939000089590938F0034
:1009800080938E0008959093930080939200089531
:100990001F920F920FB60F9211242F933F934F93F4
:1009A0005F936F937F938F939F93AF93BF93EF93D7
:1009B000FF93E0919000F09191000995FF91EF91E4
:1009C000BF91AF919F918F917F916F915F914F9167
:1009D0003F912F910F900FBE0F901F9018951F926F
:1009E0000F920FB60F9211242F933F934F935F9363
:1009F0006F937F938F939F93AF93BF93EF93FF93E7
:100A0000E0918E00F0918F000995FF91EF91BF91D9
:100A1000AF919F918F917F916F915F914F913F9196
:100A20002F910F900FBE0F901F9018951F920F924D
:100A30000FB60F9211242F933F934F935F936F93B1
:100A40007F938F939F93AF93BF93EF93FF93E09127
:100A50009200F09193000995FF91EF91BF91AF91B2
:100A60009F918F917F916F915F914F913F912F91C6
:100A70000F900FBE0F901F9018958FB780688FBF93
:100A800008951F920F920FB60F9211242F933F9348
:100A90004F935F936F937F938F939F93AF93BF9386
:100AA000EF93FF93E0917800F0917900309709F08F
:100AB0000995FF91EF91BF91AF919F918F917F9198
:100AC0006F915F914F913F912F910F900FBE0F90BB
:100AD0001F9018951F920F920FB60F9211242F930B
:100AE0003F934F935F936F937F938F939F93AF93B6
:100AF000BF93EF93FF93E0917A00F0917B003097E2
:100B000009F00995FF91EF91BF91AF919F918F915E
:100B10007F916F915F914F913F912F910F900FBEF9
:100B20000F901F9018951F920F920FB60F921124DD
:100B30002F933F934F935F936F937F938F939F93E5
:100B4000AF93BF93EF93FF93E0917C00F0917D0012
:100B5000309709F00995FF91EF91BF91AF919F9167
:100B60008F917F916F915F914F913F912F910F9056
:100B70000FBE0F901F9018951F920F920FB60F92F5
:100B800011242F933F934F935F936F937F938F9392
:100B90009F93AF93BF93EF93FF93E0918000F09109
:100BA0008100309709F00995FF91EF91BF91AF91C6
:100BB0009F918F917F916F915F914F913F912F9175
:100BC0000F900FBE0F901F9018951F920F920FB6A7
:100BD0000F9211242F933F934F935F936F937F93C3
:100BE0008F939F93AF93BF93EF93FF93E0917E001A
:100BF000F0917F00309709F00995FF91EF91BF9137
:100C0000AF919F918F917F916F915F914F913F91A4
:100C10002F910F900FBE0F901F9018951F920F925B
:100C20000FB60F9211242F933F934F935F936F93BF
:100C30007F938F939F93AF93BF93EF93FF93E09135
:100C40008200F0918300309709F00995FF91EF91B0
:100C5000BF91AF919F918F917F916F915F914F91D4
:100C60003F912F910F900FBE0F901F9018951F92DC
:100C70000F920FB60F9211242F933F934F935F93D0
:100C80006F937F938F939F93AF93BF93EF93FF9354
:100C9000E0918400F0918500309709F00995FF916B
:100CA000EF91BF91AF919F918F917F916F915F91E4
:100CB0004F913F912F910F900FBE0F901F9018955D
:100CC0001F920F920FB60F9211242F933F934F93C1
:100CD0005F936F937F938F939F93AF93BF93EF93A4
:100CE000FF93E0918600F0918700309709F0099515
:100CF000FF91EF91BF91AF919F918F917F916F91F4
:100D00005F914F913F912F910F900FBE0F901F90C9
:100D100018951F920F920FB60F9211242F933F93A5
:100D20004F935F936F937F938F939F93AF93BF93F3
:100D3000EF93FF93E0918C00F0918D00309719F0C4
:100D40008CB190E00995FF91EF91BF91AF919F9188
:100D50008F917F916F915F914F913F912F910F9064
:100D60000FBE0F901F9018951F920F920FB60F9203
:100D700011242F933F934F935F936F937F938F93A0
:100D80009F93AF93BF93EF93FF93E0918800F0910F
:100D90008900309709F00995FF91EF91BF91AF91CC
:100DA0009F918F917F916F915F914F913F912F9183
:100DB0000F900FBE0F901F9018951F920F920FB6B5
:100DC0000F9211242F933F934F935F936F937F93D1
:100DD0008F939F93AF93BF93EF93FF93E0918A001C
:100DE000F0918B00309709F00995FF91EF91BF9139
:100DF000AF919F918F917F916F915F914F913F91B3
:100E00002F910F900FBE0F901F901895A1E21A2EF0
:100E1000AA1BBB1BFD010DC0AA1FBB1FEE1FFF1F9E
:100E2000A217B307E407F50720F0A21BB30BE40BEE
:100E3000F50B661F771F881F991F1A9469F7609535
:100E40007095809590959B01AC01BD01CF010895EF
:100E5000A29FB001B39FC001A39F700D811D1124FB
:100E6000911DB29F700D811D1124911D08956894EC
:100E700001C0E894F92FF12B12F00C946B07A0E05D
:100E8000B0E0E5E4F7E00C94DD07092E059422F4C8
:100E90000E94C707112392F4F0E80F26FFEFE094B9
:100EA000F09400951095B094C094D094A194BF0A8A
:100EB000CF0ADF0AEF0AFF0A0F0B1F0B0E9476070B
:100EC00007FC0E94C707CDB7DEB7ECE00C94F9072A
:100ED000689401C0E8948F929F92CF93DF930E9411
:100EE0007607DF91CF919F908F9008958824992461
:100EF000F401E401B0E49F93AA279A158B049C04A3
:100F0000ED05FE05CF05D007A10798F4AD2FDC2F26
:100F1000CF2FFE2FE92D982C892E982F872F762FF3
:100F2000652F542F432F322F2227B85031F7BF910E
:100F300027C01B2EBF91BB27220F331F441F551FF5
:100F4000661F771F881F991F881C991CEE1FFF1FA3
:100F5000CC1FDD1FAA1FBB1F8A149B04EC05FD05D7
:100F6000CE05DF05A007B10748F08A189B08EC09F9
:100F7000FD09CE09DF09A00BB10B21601A94E1F63F
:100F80002EF49401AF01BE01CD01000C08956095CF
:100F900070958095909530954095509521953F4F4F
:100FA0004F4F5F4F6F4F7F4F8F4F9F4F08952F923F
:100FB0003F924F925F926F927F928F929F92AF92E9
:100FC000BF92CF92DF92EF92FF920F931F93CF9336
:100FD000DF93CDB7DEB7CA1BDB0B0FB6F894DEBFCD
:100FE0000FBECDBF09942A88398848885F846E84F3
:100FF0007D848C849B84AA84B984C884DF80EE803D
:10100000FD800C811B81AA81B981CE0FD11D0FB645
:10101000F894DEBF0FBECDBFED0108950024A7FDFB
:1010200000942A17300540055005600570058005BD
:0810300090050895F894FFCF2C
:0C1038003132333435363738392A302352
:00000001FF
