S01E0000436F6D707574657220496E74657266616365204C61702E73726563C9
S11300000C942A000C9424010C944B010C9472015E
S11300100C94A7020C94E5020C9424030C9447005E
S11300200C9447000C944B030C942A020C94680221
S11300300C949D010C949B030C94C3030C94D20365
S11300400C9489000C9447000C9447000C944700CE
S11300500C94470011241FBECFE5D8E0DEBFCDBF0E
S113006010E0A0E6B0E0E4E5FBE002C005900D92EC
S1130070A436B107D9F720E0A4E6B0E001C01D9290
S1130080A139B207E1F70E9449000C94A8050C9429
S113009000000E9468000E947E00FDCF843221F49B
S11300A0109265001092640090916500992351F0BC
S11300B0E091640091E09E0F90936400F0E0E05AB8
S11300C0FF4F8083833219F481E0809365000895A3
S11300D00E9472030E94990182E00E94C50140E0DF
S11300E050E060EA71E482E00E94E6018EE490E070
S11300F00E948E036FEF81E00C940401C0E06C2F2A
S113010081E00E94140182E08A95F1F700C0CF5F7C
S1130110F6CF1F920F920FB60F9211242F933F9395
S11301204F935F936F937F938F939F93AF93BF93FB
S1130130EF93FF9384B195B1E0917D00F0917E003F
S113014009953398FF91EF91BF91AF919F918F9152
S11301507F916F915F914F913F912F910F900FBEBF
S11301600F901F901895242F8130C1F028F0823011
S113017039F18330B9F1089541E050E0062E01C011
S1130180440F0A94EAF740958AB38423422F01C0AE
S1130190440F6A95EAF7482B4ABB089581E090E042
S11301A0062E01C0880F0A94EAF7809547B384238A
S11301B0422F01C0440F6A95EAF7482B47BB0895C4
S11301C081E090E0062E01C0880F0A94EAF780953A
S11301D044B38423422F01C0440F6A95EAF7482BA5
S11301E044BB089581E090E0062E01C0880F0A9474
S11301F0EAF7809541B38423422F01C0440F6A95E6
S1130200EAF7482B41BB0895813041F028F0823051
S113021039F0833039F008956ABB089567BB0895B7
S113022064BB089561BB0895813041F028F08230A9
S113023039F0833039F008956BBB089568BB089595
S113024065BB089562BB08951F920F920FB60F927B
S113025011242F933F934F935F936F937F938F93C7
S11302609F93AF93BF93EF93FF93E0916A00F09154
S11302706B000995FF91EF91BF91AF919F918F9181
S11302807F916F915F914F913F912F910F900FBE8E
S11302900F901F9018951F920F920FB60F92112472
S11302A02F933F934F935F936F937F938F939F937A
S11302B0AF93BF93EF93FF93E0916800F0916900CF
S11302C00995FF91EF91BF91AF919F918F917F918C
S11302D06F915F914F913F912F910F900FBE0F90AF
S11302E01F9018951F920F920FB60F9211242F93FF
S11302F03F934F935F936F937F938F939F93AF93AA
S1130300BF93EF93FF93E0916600F0916700099526
S1130310FF91EF91BF91AF919F918F917F916F91D9
S11303205F914F913F912F910F900FBE0F901F90AF
S113033018958FB780688FBF08951F920F920FB6DC
S11303400F9211242F933F934F935F936F937F9357
S11303508F939F93AF93BF93EF93FF938FB1E091EC
S11303607F00F09180000995FF91EF91BF91AF91CB
S11303709F918F917F916F915F914F913F912F91B9
S11303800F900FBE0F901F901895813071F018F0E8
S1130390823031F0089583B780788A6783BF0895E7
S11303A085B580788F6685BD08958FB58F738FBDB1
S11303B08FB58F7C8FBD8EB5887F82608EBD8FB5E3
S11303C08C7F8FBD8EB5877E8EBD0895CF92DF92D0
S11303D0EF92FF926A017B018823C9F08230A9F56C
S11303E041E067E083E00E94B30020E030E048ECA5
S11303F052E4C701B6010E94490420E030E04FE70F
S113040053E40E943B050E94BB0463BD1EC041E04F
S113041063E081E00E94B30020E030E048EC52E465
S1130420C701B6010E9449049B01AC0160E070E081
S113043080E89FE30E94DC0320E030E04FE753E4D0
S11304400E943B050E94BB046CBFFF90EF90DF90BD
S1130450CF9008951F920F920FB60F9211242F93ED
S11304603F934F935F936F937F938F939F93AF9338
S1130470BF93EF93FF938091780090917900A091BE
S11304807A00B0917B000196A11DB11D8093780084
S113049090937900A0937A00B0937B00892B8A2BE8
S11304A08B2B29F4E0918700F09188000995FF9146
S11304B0EF91BF91AF919F918F917F916F915F91D8
S11304C04F913F912F910F900FBE0F901F90189551
S11304D01F920F920FB60F9211242F933F934F93B5
S11304E05F936F937F938F939F93AF93BF93EF9398
S11304F0FF938091740090917500A0917600B09163
S113050077000196A11DB11D80937400909375002E
S1130510A0937600B0937700892B8A2B8B2B31F430
S113052012BEE0918100F09182000995FF91EF9154
S1130530BF91AF919F918F917F916F915F914F91F7
S11305403F912F910F900FBE0F901F9018951F92FF
S11305500F920FB60F9211242F933F934F935F93F3
S11305606F937F938F939F93AF93BF93EF93FF9377
S11305708091700090917100A0917200B09173000D
S11305800196A11DB11D8093700090937100A093FA
S11305907200B0937300892B8A2B8B2B29F4E09182
S11305A08500F09186000995FF91EF91BF91AF917D
S11305B09F918F917F916F915F914F913F912F9177
S11305C00F900FBE0F901F9018951F920F920FB6A9
S11305D00F9211242F933F934F935F936F937F93C5
S11305E08F939F93AF93BF93EF93FF9380916C008E
S11305F090916D00A0916E00B0916F000196A11DC5
S1130600B11D80936C0090936D00A0936E00B09325
S11306106F00892B8A2B8B2B31F414BCE091890059
S1130620F0918A000995FF91EF91BF91AF919F914D
S11306308F917F916F915F914F913F912F910F9087
S11306400FBE0F901F9018951F920F920FB60F9226
S113065011242F933F934F935F936F937F938F93C3
S11306609F93AF93BF93EF93FF93E0918D00F0912D
S11306708E000995FF91EF91BF91AF919F918F915A
S11306807F916F915F914F913F912F910F900FBE8A
S11306900F901F9018951F920F920FB60F9211246E
S11306A02F933F934F935F936F937F938F939F9376
S11306B0AF93BF93EF93FF93E0918B00F0918C0085
S11306C00995FF91EF91BF91AF919F918F917F9188
S11306D06F915F914F913F912F910F900FBE0F90AB
S11306E01F90189583E389B910BC80B58F74806816
S11306F080BD80B58777806880BD80B5866880BD01
S1130700529840E060E083E00E94B30041E061E081
S113071083E00E94B300549A539A0895CF93DF93D1
S1130720EC010E949901579AD0939000C0938F00D6
S1130730DF91CF9108951F920F920FB60F9211245B
S11307402F933F934F935F936F937F938F939F93D5
S1130750AF93BF93EF93FF938CB1E0918F00F0912F
S113076090000995FF91EF91BF91AF919F918F9167
S11307707F916F915F914F913F912F910F900FBE99
S11307800F901F9018951F920F920FB60F9211247D
S11307908F9380917C008CB98F910F900FBE0F9036
S11307A01F9018951F920F920FB60F9211240F905D
S11307B00FBE0F901F9018955058BB27AA270E9470
S11307C0F4030C9401050E94F30438F00E94FA0427
S11307D020F039F49F3F19F426F40C94F0040EF43D
S11307E0E095E7FB0C94EA04E92F0E94120558F304
S11307F0BA17620773078407950720F079F4A6F502
S11308000C9434050EF4E0950B2EBA2FA02D0B0199
S1130810B90190010C01CA01A0011124FF27591B41
S113082099F0593F50F4503E68F11A16F040A22F47
S1130830232F342F4427585FF3CF469537952795B8
S1130840A795F0405395C9F77EF41F16BA0B620BB7
S1130850730B840BBAF09150A1F0FF0FBB1F661FFE
S1130860771F881FC2F70EC0BA0F621F731F841F41
S113087048F4879577956795B795F7959E3F08F067
S1130880B0CF9395880F08F09927EE0F9795879529
S113089008950E945D040C9401050E94FA0458F026
S11308A00E94F30440F029F45F3F29F00C94EA0419
S11308B051110C9435050C94F0040E94120568F350
S11308C09923B1F3552391F3951B550BBB27AA2705
S11308D062177307840738F09F5F5F4F220F331F3F
S11308E0441FAA1FA9F335D00E2E3AF0E0E832D007
S11308F091505040E695001CCAF72BD0FE2F29D00A
S1130900660F771F881FBB1F261737074807AB07DB
S1130910B0E809F0BB0B802DBF01FF2793585F4F50
S11309203AF09E3F510578F00C94EA040C94350596
S11309305F3FE4F3983ED4F3869577956795B79532
S1130940F7959F5FC9F7880F911D9695879597F93D
S11309500895E1E0660F771F881FBB1F62177307B6
S11309608407BA0720F0621B730B840BBA0BEE1FCB
S113097088F7E09508950E941A0588F09F5798F02B
S1130980B92F9927B751B0F0E1F0660F771F881F90
S1130990991F1AF0BA95C9F714C0B13091F00E94AA
S11309A03405B1E008950C943405672F782F882717
S11309B0B85F39F0B93FCCF3869577956795B395D1
S11309C0D9F73EF490958095709561957F4F8F4F40
S11309D09F4F089597F99F6780E870E060E008955D
S11309E09FEF80EC089500240A9416161706180643
S11309F00906089500240A9412161306140605061F
S1130A000895092E0394000C11F4882352F0BB0FAF
S1130A1040F4BF2B11F460FF04C06F5F7F4F8F4F12
S1130A209F4F089557FD9058440F551F59F05F3F4D
S1130A3071F04795880F97FB991F61F09F3F79F0FC
S1130A4087950895121613061406551FF2CF46957E
S1130A50F1DF08C0161617061806991FF1CF869500
S1130A607105610508940895E894BB2766277727E4
S1130A70CB0197F908950E944E050C9401050E943C
S1130A80F30438F00E94FA0420F0952311F00C943A
S1130A90EA040C94F00411240C9435050E94120508
S1130AA070F3959FC1F3950F50E0551F629FF001BD
S1130AB0729FBB27F00DB11D639FAA27F00DB11DD6
S1130AC0AA1F649F6627B00DA11D661F829F22275F
S1130AD0B00DA11D621F739FB00DA11D621F839FE6
S1130AE0A00D611D221F749F3327A00D611D231FBC
S1130AF0849F600D211D822F762F6A2F11249F570A
S1130B0050409AF0F1F088234AF0EE0FFF1FBB1F0C
S1130B10661F771F881F91505040A9F79E3F5105CB
S1130B2080F00C94EA040C9435055F3FE4F3983E9E
S1130B30D4F3869577956795B795F795E7959F5F75
S1130B40C1F7FE2B880F911D9695879597F9089507
S1070B50F894FFCF43
S1070B54646464006D
S9030000FC
