:100000000C942A000C940C020C9433020C945A02A7
:100010000C948F030C94CD030C940C040C944700A7
:100020000C9447000C9433040C9412030C9450036A
:100030000C9485020C9483040C94AB040C94BA04C5
:100040000C9471010C9447000C9447000C944700E9
:100050000C94470011241FBECFE5D8E0DEBFCDBF12
:1000600010E0A0E6B0E0EEEEFDE002C005900D92DB
:10007000A23CB107D9F720E0A2ECB0E001C01D928C
:10008000AF3EB207E1F70E9449000C94F5060C94CC
:1000900000000E9468000E948800FDCF843221F495
:1000A0001092C3001092C2009091C300992351F0A6
:1000B000E091C20091E09E0F9093C200F0E0E25404
:1000C000FF4F8083833219F481E08093C300089549
:1000D0000E945A040E94810282E00E94AD0240E028
:1000E00050E060EA71E482E00E94CE028EE490E08B
:1000F0000E9476046FEF81E00C94EC01181619064B
:1001000034F422E02A95F1F700C00197F7CF089563
:10011000CF92DF92EF92FF920F931F93CF93DF93D3
:100120008091BE0090E0C0978130910581F134F458
:10013000892B09F0C1C0C0E6D0E019C0823091051A
:1001400009F452C0039709F0B7C06091BF0010EDE9
:10015000160FC091C000C053D0E08FEF90E0BE01F9
:100160000E94CD06D62E00E0E12CF12C75C06881EE
:10017000229681E00E94FC0189E991E00197F1F764
:1001800000C0000090E0CE3BD90789F7A1C0609184
:10019000C000605370E080E090E00E94D40520E051
:1001A00030E04FE753E40E94600620E030E040E496
:1001B00051E40E9431050E94A305C62FD0E06D2FA7
:1001C00081E00E94FC0182E08A95F1F700C0DF5FC8
:1001D000CD17A8F76C2F81E00E94FC0192E09A9560
:1001E000F1F700C0C150F6CF6091C000605370E0DD
:1001F00080E090E00E94D40520E030E04FE753E437
:100200000E94600620E030E040E451E40E943105A5
:100210000E94A305C62F6091BF00605370E080E08C
:1002200090E00E94D4059B01AC0160E070E08AEF91
:1002300093E40E9431050E94A3056B017C0160E0FC
:1002400081E00E94FC01C6010E947E006C2F81E0CB
:100250000E94FC01C60126C0602F81E00E94FC01C3
:1002600087EC90E00197F1F700C000009FEFE91ADA
:10027000F90A0D0DCE15DF057CF760E081E00E94E4
:10028000FC01612F70E080E090E00E94D4059B01AA
:10029000AC0160E070E08AEF93E40E9431050E94B7
:1002A000A305CB01DF91CF911F910F91FF90EF90AC
:1002B000DF90CF900C947E0060E081E0DF91CF91E1
:1002C0001F910F91FF90EF90DF90CF900C94FC0165
:1002D000DF91CF911F910F91FF90EF90DF90CF9022
:1002E00008951F920F920FB60F9211242F933F93F0
:1002F0004F935F936F937F938F939F93AF93BF932E
:10030000EF93FF9384B195B1E091DB00F091DC00B5
:1003100009953398FF91EF91BF91AF919F918F9184
:100320007F916F915F914F913F912F910F900FBEF1
:100330000F901F901895242F8130C1F028F0823043
:1003400039F18330B9F1089541E050E0062E01C043
:10035000440F0A94EAF740958AB38423422F01C0E0
:10036000440F6A95EAF7482B4ABB089581E090E074
:10037000062E01C0880F0A94EAF7809547B38423BC
:10038000422F01C0440F6A95EAF7482B47BB0895F6
:1003900081E090E0062E01C0880F0A94EAF780956C
:1003A00044B38423422F01C0440F6A95EAF7482BD7
:1003B00044BB089581E090E0062E01C0880F0A94A6
:1003C000EAF7809541B38423422F01C0440F6A9518
:1003D000EAF7482B41BB0895813041F028F0823084
:1003E00039F0833039F008956ABB089567BB0895EA
:1003F00064BB089561BB0895813041F028F08230DC
:1004000039F0833039F008956BBB089568BB0895C7
:1004100065BB089562BB08951F920F920FB60F92AD
:1004200011242F933F934F935F936F937F938F93F9
:100430009F93AF93BF93EF93FF93E091C800F09128
:10044000C9000995FF91EF91BF91AF919F918F9155
:100450007F916F915F914F913F912F910F900FBEC0
:100460000F901F9018951F920F920FB60F921124A4
:100470002F933F934F935F936F937F938F939F93AC
:10048000AF93BF93EF93FF93E091C600F091C70045
:100490000995FF91EF91BF91AF919F918F917F91BE
:1004A0006F915F914F913F912F910F900FBE0F90E1
:1004B0001F9018951F920F920FB60F9211242F9331
:1004C0003F934F935F936F937F938F939F93AF93DC
:1004D000BF93EF93FF93E091C400F091C50009959D
:1004E000FF91EF91BF91AF919F918F917F916F910C
:1004F0005F914F913F912F910F900FBE0F901F90E2
:1005000018958FB780688FBF08951F920F920FB60E
:100510000F9211242F933F934F935F936F937F9389
:100520008F939F93AF93BF93EF93FF938FB1E0911E
:10053000DD00F091DE000995FF91EF91BF91AF9141
:100540009F918F917F916F915F914F913F912F91EB
:100550000F900FBE0F901F901895813071F018F01A
:10056000823031F0089583B780788A6783BF089519
:1005700085B580788F6685BD08958FB58F738FBDE3
:100580008FB58F7C8FBD8EB5887F82608EBD8FB515
:100590008C7F8FBD8EB5877E8EBD0895CF92DF9202
:1005A000EF92FF926A017B018823C9F08230A9F59E
:1005B00041E067E083E00E949B0120E030E048ECEE
:1005C00052E4C701B6010E94310520E030E04FE758
:1005D00053E40E9460060E94A30563BD1EC041E073
:1005E00063E081E00E949B0120E030E048EC52E4AF
:1005F000C701B6010E9431059B01AC0160E070E0CB
:1006000080E89FE30E94C40420E030E04FE753E419
:100610000E9460060E94A3056CBFFF90EF90DF90E0
:10062000CF9008951F920F920FB60F9211242F931F
:100630003F934F935F936F937F938F939F93AF936A
:10064000BF93EF93FF938091D6009091D700A09134
:10065000D800B091D9000196A11DB11D8093D6009C
:100660009093D700A093D800B093D900892B8A2B00
:100670008B2B29F4E091E500F091E6000995FF91BC
:10068000EF91BF91AF919F918F917F916F915F910A
:100690004F913F912F910F900FBE0F901F90189583
:1006A0001F920F920FB60F9211242F933F934F93E7
:1006B0005F936F937F938F939F93AF93BF93EF93CA
:1006C000FF938091D2009091D300A091D400B0917B
:1006D000D5000196A11DB11D8093D2009093D30047
:1006E000A093D400B093D500892B8A2B8B2B31F4A7
:1006F00012BEE091DF00F091E0000995FF91EF91CB
:10070000BF91AF919F918F917F916F915F914F9129
:100710003F912F910F900FBE0F901F9018951F9231
:100720000F920FB60F9211242F933F934F935F9325
:100730006F937F938F939F93AF93BF93EF93FF93A9
:100740008091CE009091CF00A091D000B091D100C7
:100750000196A11DB11D8093CE009093CF00A09370
:10076000D000B093D100892B8A2B8B2B29F4E091F8
:10077000E300F091E4000995FF91EF91BF91AF91F3
:100780009F918F917F916F915F914F913F912F91A9
:100790000F900FBE0F901F9018951F920F920FB6DB
:1007A0000F9211242F933F934F935F936F937F93F7
:1007B0008F939F93AF93BF93EF93FF938091CA0062
:1007C0009091CB00A091CC00B091CD000196A11DDD
:1007D000B11D8093CA009093CB00A093CC00B0933E
:1007E000CD00892B8A2B8B2B31F414BCE091E700D0
:1007F000F091E8000995FF91EF91BF91AF919F9122
:100800008F917F916F915F914F913F912F910F90B9
:100810000FBE0F901F9018951F920F920FB60F9258
:1008200011242F933F934F935F936F937F938F93F5
:100830009F93AF93BF93EF93FF93E091EB00F09101
:10084000EC000995FF91EF91BF91AF919F918F912E
:100850007F916F915F914F913F912F910F900FBEBC
:100860000F901F9018951F920F920FB60F921124A0
:100870002F933F934F935F936F937F938F939F93A8
:10088000AF93BF93EF93FF93E091E900F091EA00FB
:100890000995FF91EF91BF91AF919F918F917F91BA
:1008A0006F915F914F913F912F910F900FBE0F90DD
:1008B0001F90189583E389B910BC80B58F74806848
:1008C00080BD80B58777806880BD80B5866880BD33
:1008D000529840E060E083E00E949B0141E061E0CB
:1008E00083E00E949B01549A539A0895CF93DF931B
:1008F000EC010E948102579AD093EE00C093ED0064
:10090000DF91CF9108951F920F920FB60F9211248D
:100910002F933F934F935F936F937F938F939F9307
:10092000AF93BF93EF93FF938CB1E091ED00F09103
:10093000EE000995FF91EF91BF91AF919F918F913B
:100940007F916F915F914F913F912F910F900FBECB
:100950000F901F9018951F920F920FB60F921124AF
:100960008F938091DA008CB98F910F900FBE0F900A
:100970001F9018951F920F920FB60F9211240F908F
:100980000FBE0F901F9018955058BB27AA270E94A2
:10099000DC040C9426060E94180638F00E941F06FC
:1009A00020F039F49F3F19F426F40C9415060EF448
:1009B000E095E7FB0C940F06E92F0E94370658F3E9
:1009C000BA17620773078407950720F079F4A6F534
:1009D0000C9459060EF4E0950B2EBA2FA02D0B01A6
:1009E000B90190010C01CA01A0011124FF27591B74
:1009F00099F0593F50F4503E68F11A16F040A22F7A
:100A0000232F342F4427585FF3CF469537952795EA
:100A1000A795F0405395C9F77EF41F16BA0B620BE9
:100A2000730B840BBAF09150A1F0FF0FBB1F661F30
:100A3000771F881FC2F70EC0BA0F621F731F841F73
:100A400048F4879577956795B795F7959E3F08F099
:100A5000B0CF9395880F08F09927EE0F979587955B
:100A600008950E9445050C9426060E941F0658F022
:100A70000E94180640F029F45F3F29F00C940F06FD
:100A800051110C945A060C9415060E94370668F30F
:100A90009923B1F3552391F3951B550BBB27AA2737
:100AA00062177307840738F09F5F5F4F220F331F71
:100AB000441FAA1FA9F335D00E2E3AF0E0E832D039
:100AC00091505040E695001CCAF72BD0FE2F29D03C
:100AD000660F771F881FBB1F261737074807AB070E
:100AE000B0E809F0BB0B802DBF01FF2793585F4F83
:100AF0003AF09E3F510578F00C940F060C945A067C
:100B00005F3FE4F3983ED4F3869577956795B79564
:100B1000F7959F5FC9F7880F911D9695879597F96F
:100B20000895E1E0660F771F881FBB1F62177307E8
:100B30008407BA0720F0621B730B840BBA0BEE1FFD
:100B400088F7E09508950E943F0688F09F5798F037
:100B5000B92F9927B751B0F0E1F0660F771F881FC2
:100B6000991F1AF0BA95C9F714C0B13091F00E94DC
:100B70005906B1E008950C945906672F782F8827FD
:100B8000B85F39F0B93FCCF3869577956795B39503
:100B9000D9F73EF490958095709561957F4F8F4F72
:100BA0009F4F0895E89409C097FB3EF49095809577
:100BB000709561957F4F8F4F9F4F9923A9F0F92F23
:100BC00096E9BB279395F695879577956795B795A1
:100BD000F111F8CFFAF4BB0F11F460FF1BC06F5F87
:100BE0007F4F8F4F9F4F16C0882311F096E911C099
:100BF000772321F09EE8872F762F05C0662371F0BA
:100C000096E8862F70E060E02AF09A95660F771FCD
:100C1000881FDAF7880F9695879597F9089597F9C1
:100C20009F6780E870E060E008959FEF80EC089592
:100C300000240A94161617061806090608950024BB
:100C40000A9412161306140605060895092E039435
:100C5000000C11F4882352F0BB0F40F4BF2B11F4A9
:100C600060FF04C06F5F7F4F8F4F9F4F089557FD08
:100C70009058440F551F59F05F3F71F04795880F0A
:100C800097FB991F61F09F3F79F0879508951216A1
:100C900013061406551FF2CF4695F1DF08C016164D
:100CA00017061806991FF1CF8695710561050894FE
:100CB0000895E894BB2766277727CB0197F9089515
:100CC0000E9473060C9426060E94180638F00E94B3
:100CD0001F0620F0952311F00C940F060C941506B6
:100CE00011240C945A060E94370670F3959FC1F3A5
:100CF000950F50E0551F629FF001729FBB27F00DCA
:100D0000B11D639FAA27F00DB11DAA1F649F66271E
:100D1000B00DA11D661F829F2227B00DA11D621F6D
:100D2000739FB00DA11D621F839FA00D611D221F27
:100D3000749F3327A00D611D231F849F600D211D0B
:100D4000822F762F6A2F11249F5750409AF0F1F08E
:100D500088234AF0EE0FFF1FBB1F661F771F881FF7
:100D600091505040A9F79E3F510580F00C940F061A
:100D70000C945A065F3FE4F3983ED4F3869577953A
:100D80006795B795F795E7959F5FC1F7FE2B880F9D
:100D9000911D9695879597F9089597FB072E16F460
:100DA000009407D077FD09D00E94E10607FC05D02A
:100DB0003EF4909581959F4F0895709561957F4F72
:100DC0000895AA1BBB1B51E107C0AA1FBB1FA61792
:100DD000B70710F0A61BB70B881F991F5A95A9F7E4
:0E0DE00080959095BC01CD010895F894FFCF49
:100DEE007F008F009F00AE00BC00CA00D600E1005D
:100DFE00EA00F200F800FE00F800F200EA00E1005E
:100E0E00D600CA00BC00AE009F008F007F006F00AE
:100E1E005F0050004200340028001D0014000C003A
:100E2E00060002000000020006000C0014001D0067
:100E3E0028003400420050005F006F0080006464A0
:020E4E0064003E
:00000001FF
