:100000000C942A000C9409020C9430020C945702B0
:100010000C9458030C9496030C94D5030C9447004D
:100020000C9447000C94FC030C94DB020C94190311
:100030000C9482020C9450040C9478040C94870461
:100040000C942E010C9447000C9447000C9447002C
:100050000C94470011241FBECFE5D8E0DEBFCDBF12
:1000600010E0A0E6B0E0E6E2F9E002C005900D92F3
:10007000A236B107D9F720E0A2E6B0E001C01D9298
:10008000A93DB207E1F70E9429010C9491040C9458
:1000900000008B3311F4109262009091620099235A
:1000A00069F080936000833549F482E50E943F0443
:1000B0008BE20E943F048DE20C943F04833219F4DA
:1000C00081E0809362000895CF93982F9F7082956E
:1000D0008F709C3071F030F49A30A1F09B3079F43D
:1000E000C2E411C09E3049F030F09F3041F4C6E4C4
:1000F0000AC0C3E408C0C4E406C0C5E404C0C0E349
:10010000C90F01C0C1E48C3071F030F48A3099F02D
:100110008B3079F482E410C08E3049F030F08F30AB
:1001200041F486E409C083E407C084E405C085E4A3
:1001300003C0805D01C081E40E943F048C2FCF91F9
:100140000C943F040E9423040E947E0260E080E041
:100150000E94D9016FEF80E00E94E90181E00E94D6
:10016000AA0289E490E00C944304EF92FF920F936B
:100170001F93CF93DF9380916000813091F184349D
:1001800009F060C080E00E94F901F82E60E070E0A4
:1001900081E00E94CB0241E060E082E00E945801D1
:1001A00005E910E0C3E6D0E080E00E94F9018F1578
:1001B000D9F380E00E94F901F82E80E00E94F90155
:1001C000F80181938F010E94D8028993999360E08E
:1001D00082E00E94A901F0E0C539DF0729F781E03C
:1001E0002FC08CE40E943F048BE20E943F048DE20A
:1001F0000E943F0405E910E0C3E6D0E0F8018191D8
:100200008F010E9464008BE20E943F048DE20E94F5
:100210003F047E0189810E9464002296F70180815B
:100220000E94640081E50E943F048BE20E943F042B
:100230008DE20E943F04F0E0C539DF07F9F683E55F
:1002400080936000DF91CF911F910F91FF90EF900D
:1002500008950E94A2000E94B500FDCF1F920F9248
:100260000FB60F9211242F933F934F935F936F9389
:100270007F938F939F93AF93BF93EF93FF9384B13B
:1002800095B1E091C500F091C60009953398FF91B2
:10029000EF91BF91AF919F918F917F916F915F91FE
:1002A0004F913F912F910F900FBE0F901F90189577
:1002B000242F8130C1F028F0823039F18330B9F138
:1002C000089541E050E0062E01C0440F0A94EAF779
:1002D00040958AB38423422F01C0440F6A95EAF700
:1002E000482B4ABB089581E090E0062E01C0880F9C
:1002F0000A94EAF7809547B38423422F01C0440F44
:100300006A95EAF7482B47BB089581E090E0062EF6
:1003100001C0880F0A94EAF7809544B38423422FE2
:1003200001C0440F6A95EAF7482B44BB089581E069
:1003300090E0062E01C0880F0A94EAF7809541B339
:100340008423422F01C0440F6A95EAF7482B41BB32
:100350000895813081F028F08230B9F08330F9F0CF
:10036000089581E090E001C0880F6A95EAF79BB399
:1003700089278BBB089581E090E001C0880F6A95C2
:10038000EAF798B3892788BB089581E090E001C01F
:10039000880F6A95EAF795B3892785BB089581E0B0
:1003A00090E001C0880F6A95EAF792B3892782BB73
:1003B0000895813041F028F0823039F0833039F0EF
:1003C00008956ABB089567BB089564BB089561BB37
:1003D0000895813041F028F0823039F0833039F0CF
:1003E00008956BBB089568BB089565BB089562BB13
:1003F0000895813049F030F0823041F0833039F493
:1004000090B305C099B303C096B301C093B3892FCD
:1004100008951F920F920FB60F9211242F933F93BE
:100420004F935F936F937F938F939F93AF93BF93FC
:10043000EF93FF93E091B200F091B3000995FF9123
:10044000EF91BF91AF919F918F917F916F915F914C
:100450004F913F912F910F900FBE0F901F901895C5
:100460001F920F920FB60F9211242F933F934F9329
:100470005F936F937F938F939F93AF93BF93EF930C
:10048000FF93E091B000F091B1000995FF91EF91D9
:10049000BF91AF919F918F917F916F915F914F919C
:1004A0003F912F910F900FBE0F901F9018951F92A4
:1004B0000F920FB60F9211242F933F934F935F9398
:1004C0006F937F938F939F93AF93BF93EF93FF931C
:1004D000E091AE00F091AF000995FF91EF91BF91CF
:1004E000AF919F918F917F916F915F914F913F91CC
:1004F0002F910F900FBE0F901F9018958FB78068A7
:100500008FBF08951F920F920FB60F9211242F9351
:100510003F934F935F936F937F938F939F93AF938B
:10052000BF93EF93FF938FB1E091C700F091C800A4
:100530000995FF91EF91BF91AF919F918F917F911D
:100540006F915F914F913F912F910F900FBE0F9040
:100550001F901895813071F018F0823031F00895B5
:1005600083B780788A6783BF089585B580788F6662
:1005700085BD08958FB58F738FBD8FB58F7C8FBD6F
:100580008EB5887F83608EBD8FB58C7F8FBD8EB515
:10059000877E8EBD0895813041F018F0823019F0C9
:1005A000089562BF089564BD08957DBD6CBD089532
:1005B0008CB59DB508951F920F920FB60F9211241E
:1005C0002F933F934F935F936F937F938F939F935B
:1005D000AF93BF93EF93FF938091C0009091C100C0
:1005E000A091C200B091C3000196A11DB11D8093DE
:1005F000C0009093C100A093C200B093C300892BA8
:100600008A2B8B2B29F4E091CF00F091D000099533
:10061000FF91EF91BF91AF919F918F917F916F91DA
:100620005F914F913F912F910F900FBE0F901F90B0
:1006300018951F920F920FB60F9211242F933F938C
:100640004F935F936F937F938F939F93AF93BF93DA
:10065000EF93FF938091BC009091BD00A091BE00EC
:10066000B091BF000196A11DB11D8093BC00909375
:10067000BD00A093BE00B093BF00892B8A2B8B2BAB
:1006800031F412BEE091C900F091CA000995FF91C2
:10069000EF91BF91AF919F918F917F916F915F91FA
:1006A0004F913F912F910F900FBE0F901F90189573
:1006B0001F920F920FB60F9211242F933F934F93D7
:1006C0005F936F937F938F939F93AF93BF93EF93BA
:1006D000FF938091B8009091B900A091BA00B091B9
:1006E000BB000196A11DB11D8093B8009093B90085
:1006F000A093BA00B093BB00892B8A2B8B2B29F4D3
:10070000E091CD00F091CE000995FF91EF91BF915E
:10071000AF919F918F917F916F915F914F913F9199
:100720002F910F900FBE0F901F9018951F920F9250
:100730000FB60F9211242F933F934F935F936F93B4
:100740007F938F939F93AF93BF93EF93FF9380918A
:10075000B4009091B500A091B600B091B700019699
:10076000A11DB11D8093B4009093B500A093B60075
:10077000B093B700892B8A2B8B2B31F414BCE091FA
:10078000D100F091D2000995FF91EF91BF91AF9107
:100790009F918F917F916F915F914F913F912F9199
:1007A0000F900FBE0F901F9018951F920F920FB6CB
:1007B0000F9211242F933F934F935F936F937F93E7
:1007C0008F939F93AF93BF93EF93FF93E091D500E7
:1007D000F091D6000995FF91EF91BF91AF919F9154
:1007E0008F917F916F915F914F913F912F910F90DA
:1007F0000FBE0F901F9018951F920F920FB60F9279
:1008000011242F933F934F935F936F937F938F9315
:100810009F93AF93BF93EF93FF93E091D300F09139
:10082000D4000995FF91EF91BF91AF919F918F9166
:100830007F916F915F914F913F912F910F900FBEDC
:100840000F901F90189583E389B910BC80B58F7401
:10085000806880BD80B58777806880BD80B58668F8
:1008600080BD529840E060E083E00E94580141E082
:1008700061E083E00E945801549A539A08955D9B69
:10088000FECF8CB90895CF93DF93EC010E947E02D6
:10089000579AD093D800C093D700DF91CF91089595
:1008A0001F920F920FB60F9211242F933F934F93E5
:1008B0005F936F937F938F939F93AF93BF93EF93C8
:1008C000FF938CB1E091D700F091D8000995FF918A
:1008D000EF91BF91AF919F918F917F916F915F91B8
:1008E0004F913F912F910F900FBE0F901F90189531
:1008F0001F920F920FB60F9211248F938091C40014
:100900008CB98F910F900FBE0F901F9018951F926A
:100910000F920FB60F9211240F900FBE0F901F90E1
:060920001895F894FFCFCA
:0209260053007C
:00000001FF
