S01E0000436F6D707574657220496E74657266616365204C61702E73726563C9
S11300000C942A000C940B020C9432020C945902A6
S11300100C948E030C94CC030C940B040C944700A6
S11300200C9447000C9432040C9411030C944F0369
S11300300C9484020C9482040C94AA040C94B904C5
S11300400C9470010C9447000C9447000C944700E6
S11300500C94470011241FBECFE5D8E0DEBFCDBF0E
S113006010E0A0E6B0E0ECEEFDE002C005900D92D9
S1130070A23CB107D9F720E0A2ECB0E001C01D9288
S1130080AF3EB207E1F70E9449000C94F4060C94C9
S113009000000E946C000E948C00FDCF843221F489
S11300A01092C3001092C2009091C300992351F0A2
S11300B0E091C20091E09E0F9093C200F0E0E25400
S11300C0FF4F8083833219F481E08093C300089545
S11300D060E081E00C94FB010E9459040E948002BC
S11300E082E00E94AC0240E050E060EA71E482E009
S11300F00E94CD028EE490E00E9475046FEF81E0CF
S11301000C94EB011816190634F422E02A95F1F741
S113011000C00197F7CF0895CF92DF92EF92FF923C
S11301200F931F93CF93DF938091BE0090E0C0970D
S11301308130910571F134F4892B09F0B8C0C0E61F
S1130140D0E017C06091C000D090BF00823091050C
S113015009F44BC0039709F0AAC0C62FD0E08FEF73
S113016090E0BE010E94CC06E62EF12C00E010E0E7
S11301706FC06881229681E00E94FB0189E991E0C9
S11301800197F1F700C0000090E0CE3BD90789F752
S11301909EC06091C00070E080E090E00E94D305B2
S11301A020E030E04FE753E40E945F0620E030E0B7
S11301B040E451E40E9430050E94A205C62FD0E01D
S11301C06D2F81E00E94FB0182E08A95F1F700C067
S11301D0DF5FCD17A8F76C2F81E00E94FB0192E04E
S11301E09A95F1F700C0C150F6CF70E080E090E03E
S11301F00E94D30520E030E04FE753E40E945F06FD
S113020020E030E040E451E40E9430050E94A20561
S1130210C62F6D2D70E080E090E00E94D3059B0115
S1130220AC0160E070E08AEF93E40E9430050E9424
S1130230A2056B017C0160E081E00E94FB01C60124
S11302400E9482006C2F81E00E94FB01C60125C040
S11302506F2D81E00E94FB0187EC90E00197F1F79C
S113026000C000000F5F1F4FFE0CC017D10784F7BA
S113027060E081E00E94FB016D2D70E080E090E081
S11302800E94D3059B01AC0160E070E08AEF93E427
S11302900E9430050E94A205CB01DF91CF911F91EE
S11302A00F91FF90EF90DF90CF900C9482006091BB
S11302B0C00070E08091BF0090E0DF91CF911F916A
S11302C00F91FF90EF90DF90CF900C946800DF9136
S11302D0CF911F910F91FF90EF90DF90CF900895F1
S11302E01F920F920FB60F9211242F933F934F93A7
S11302F05F936F937F938F939F93AF93BF93EF938A
S1130300FF9384B195B1E091DB00F091DC00099595
S11303103398FF91EF91BF91AF919F918F917F910E
S11303206F915F914F913F912F910F900FBE0F905E
S11303301F901895242F8130C1F028F0823039F1B4
S11303408330B9F1089541E050E0062E01C0440F16
S11303500A94EAF740958AB38423422F01C0440FDC
S11303606A95EAF7482B4ABB089581E090E0062E8F
S113037001C0880F0A94EAF7809547B38423422F7B
S113038001C0440F6A95EAF7482B47BB089581E002
S113039090E0062E01C0880F0A94EAF7809544B3D2
S11303A08423422F01C0440F6A95EAF7482B44BBCB
S11303B0089581E090E0062E01C0880F0A94EAF7C0
S11303C0809541B38423422F01C0440F6A95EAF714
S11303D0482B41BB0895813041F028F0823039F038
S11303E0833039F008956ABB089567BB089564BBF0
S11303F0089561BB0895813041F028F0823039F0CE
S1130400833039F008956BBB089568BB089565BBCC
S1130410089562BB08951F920F920FB60F92112494
S11304202F933F934F935F936F937F938F939F93F8
S1130430AF93BF93EF93FF93E091C800F091C9008D
S11304400995FF91EF91BF91AF919F918F917F910A
S11304506F915F914F913F912F910F900FBE0F902D
S11304601F9018951F920F920FB60F9211242F937D
S11304703F934F935F936F937F938F939F93AF9328
S1130480BF93EF93FF93E091C600F091C7000995E5
S1130490FF91EF91BF91AF919F918F917F916F9158
S11304A05F914F913F912F910F900FBE0F901F902E
S11304B018951F920F920FB60F9211242F933F930A
S11304C04F935F936F937F938F939F93AF93BF9358
S11304D0EF93FF93E091C400F091C5000995FF915B
S11304E0EF91BF91AF919F918F917F916F915F91A8
S11304F04F913F912F910F900FBE0F901F90189521
S11305008FB780688FBF08951F920F920FB60F9216
S113051011242F933F934F935F936F937F938F9304
S11305209F93AF93BF93EF93FF938FB1E091DD005F
S1130530F091DE000995FF91EF91BF91AF919F91EA
S11305408F917F916F915F914F913F912F910F9078
S11305500FBE0F901F901895813071F018F0823003
S113056031F0089583B780788A6783BF089585B58D
S113057080788F6685BD08958FB58F738FBD8FB5D5
S11305808F7C8FBD8EB5887F82608EBD8FB58C7F4A
S11305908FBD8EB5877E8EBD0895CF92DF92EF9288
S11305A0FF926A017B018823C9F08230A9F541E0FA
S11305B067E083E00E949A0120E030E048EC52E4D6
S11305C0C701B6010E94300520E030E04FE753E454
S11305D00E945F060E94A20563BD1EC041E063E065
S11305E081E00E949A0120E030E048EC52E4C70127
S11305F0B6010E9430059B01AC0160E070E080E828
S11306009FE30E94C30420E030E04FE753E40E94DC
S11306105F060E94A2056CBFFF90EF90DF90CF9021
S113062008951F920F920FB60F9211242F933F93A8
S11306304F935F936F937F938F939F93AF93BF93E6
S1130640EF93FF938091D6009091D700A091D800AA
S1130650B091D9000196A11DB11D8093D60090934D
S1130660D700A093D800B093D900892B8A2B8B2B69
S113067029F4E091E500F091E6000995FF91EF91EE
S1130680BF91AF919F918F917F916F915F914F91A6
S11306903F912F910F900FBE0F901F9018951F92AE
S11306A00F920FB60F9211242F933F934F935F93A2
S11306B06F937F938F939F93AF93BF93EF93FF9326
S11306C08091D2009091D300A091D400B091D50034
S11306D00196A11DB11D8093D2009093D300A093E5
S11306E0D400B093D500892B8A2B8B2B31F412BE06
S11306F0E091DF00F091E0000995FF91EF91BF9147
S1130700AF919F918F917F916F915F914F913F91A5
S11307102F910F900FBE0F901F9018951F920F925C
S11307200FB60F9211242F933F934F935F936F93C0
S11307307F938F939F93AF93BF93EF93FF93809196
S1130740CE009091CF00A091D000B091D10001963D
S1130750A11DB11D8093CE009093CF00A093D00033
S1130760B093D100892B8A2B8B2B29F4E091E300E1
S1130770F091E4000995FF91EF91BF91AF919F91A2
S11307808F917F916F915F914F913F912F910F9036
S11307900FBE0F901F9018951F920F920FB60F92D5
S11307A011242F933F934F935F936F937F938F9372
S11307B09F93AF93BF93EF93FF938091CA0090915F
S11307C0CB00A091CC00B091CD000196A11DB11D2C
S11307D08093CA009093CB00A093CC00B093CD003B
S11307E0892B8A2B8B2B31F414BCE091E700F09118
S11307F0E8000995FF91EF91BF91AF919F918F917F
S11308007F916F915F914F913F912F910F900FBE08
S11308100F901F9018951F920F920FB60F921124EC
S11308202F933F934F935F936F937F938F939F93F4
S1130830AF93BF93EF93FF93E091EB00F091EC0043
S11308400995FF91EF91BF91AF919F918F917F9106
S11308506F915F914F913F912F910F900FBE0F9029
S11308601F9018951F920F920FB60F9211242F9379
S11308703F934F935F936F937F938F939F93AF9324
S1130880BF93EF93FF93E091E900F091EA0009959B
S1130890FF91EF91BF91AF919F918F917F916F9154
S11308A05F914F913F912F910F900FBE0F901F902A
S11308B0189583E389B910BC80B58F74806880BDB6
S11308C080B58777806880BD80B5866880BD529882
S11308D040E060E083E00E949A0141E061E083E04F
S11308E00E949A01549A539A0895CF93DF93EC018E
S11308F00E948002579AD093EE00C093ED00DF91DE
S1130900CF9108951F920F920FB60F9211242F9337
S11309103F934F935F936F937F938F939F93AF9383
S1130920BF93EF93FF938CB1E091ED00F091EE0053
S11309300995FF91EF91BF91AF919F918F917F9115
S11309406F915F914F913F912F910F900FBE0F9038
S11309501F9018951F920F920FB60F9211248F9328
S11309608091DA008CB98F910F900FBE0F901F9079
S113097018951F920F920FB60F9211240F900FBE6D
S11309800F901F9018955058BB27AA270E94DB048C
S11309900C9425060E94170638F00E941E0620F0CB
S11309A039F49F3F19F426F40C9414060EF4E095E0
S11309B0E7FB0C940E06E92F0E94360658F3BA178B
S11309C0620773078407950720F079F4A6F50C9461
S11309D058060EF4E0950B2EBA2FA02D0B01B90189
S11309E090010C01CA01A0011124FF27591B99F0A1
S11309F0593F50F4503E68F11A16F040A22F232FAD
S1130A00342F4427585FF3CF469537952795A795FC
S1130A10F0405395C9F77EF41F16BA0B620B730BA3
S1130A20840BBAF09150A1F0FF0FBB1F661F771F14
S1130A30881FC2F70EC0BA0F621F731F841F48F4C9
S1130A40879577956795B795F7959E3F08F0B0CF52
S1130A509395880F08F09927EE0F97958795089539
S1130A600E9444050C9425060E941E0658F00E941C
S1130A70170640F029F45F3F29F00C940E0651113B
S1130A800C9459060C9414060E94360668F39923B4
S1130A90B1F3552391F3951B550BBB27AA27621776
S1130AA07307840738F09F5F5F4F220F331F441F83
S1130AB0AA1FA9F335D00E2E3AF0E0E832D09150B7
S1130AC05040E695001CCAF72BD0FE2F29D0660FA4
S1130AD0771F881FBB1F261737074807AB07B0E8E7
S1130AE009F0BB0B802DBF01FF2793585F4F3AF0ED
S1130AF09E3F510578F00C940E060C9459065F3F06
S1130B00E4F3983ED4F3869577956795B795F79572
S1130B109F5FC9F7880F911D9695879597F908955A
S1130B20E1E0660F771F881FBB1F621773078407F6
S1130B30BA0720F0621B730B840BBA0BEE1F88F705
S1130B40E09508950E943E0688F09F5798F0B92FCB
S1130B509927B751B0F0E1F0660F771F881F991FEE
S1130B601AF0BA95C9F714C0B13091F00E94580632
S1130B70B1E008950C945806672F782F8827B85F42
S1130B8039F0B93FCCF3869577956795B395D9F746
S1130B903EF490958095709561957F4F8F4F9F4F50
S1130BA00895E89409C097FB3EF49095809570955C
S1130BB061957F4F8F4F9F4F9923A9F0F92F96E9A5
S1130BC0BB279395F695879577956795B795F1111A
S1130BD0F8CFFAF4BB0F11F460FF1BC06F5F7F4FB7
S1130BE08F4F9F4F16C0882311F096E911C07723C9
S1130BF021F09EE8872F762F05C0662371F096E8D2
S1130C00862F70E060E02AF09A95660F771F881FA0
S1130C10DAF7880F9695879597F9089597F99F675E
S1130C2080E870E060E008959FEF80EC0895002470
S1130C300A941616170618060906089500240A943D
S1130C4012161306140605060895092E0394000CC3
S1130C5011F4882352F0BB0F40F4BF2B11F460FF52
S1130C6004C06F5F7F4F8F4F9F4F089557FD90587B
S1130C70440F551F59F05F3F71F04795880F97FB5C
S1130C80991F61F09F3F79F0879508951216130616
S1130C901406551FF2CF4695F1DF08C01616170645
S1130CA01806991FF1CF869571056105089408957A
S1130CB0E894BB2766277727CB0197F908950E940C
S1130CC072060C9425060E94170638F00E941E0630
S1130CD020F0952311F00C940E060C9414061124A4
S1130CE00C9459060E94360670F3959FC1F3950F34
S1130CF050E0551F629FF001729FBB27F00DB11D9C
S1130D00639FAA27F00DB11DAA1F649F6627B00D2B
S1130D10A11D661F829F2227B00DA11D621F739F14
S1130D20B00DA11D621F839FA00D611D221F749F22
S1130D303327A00D611D231F849F600D211D822F69
S1130D40762F6A2F11249F5750409AF0F1F0882390
S1130D504AF0EE0FFF1FBB1F661F771F881F9150BD
S1130D605040A9F79E3F510580F00C940E060C9458
S1130D7059065F3FE4F3983ED4F3869577956795DB
S1130D80B795F795E7959F5FC1F7FE2B880F911DE7
S1130D909695879597F9089597FB072E16F4009476
S1130DA007D077FD09D00E94E00607FC05D03EF489
S1130DB0909581959F4F0895709561957F4F089503
S1130DC0AA1BBB1B51E107C0AA1FBB1FA617B7076D
S1130DD010F0A61BB70B881F991F5A95A9F7809589
S10F0DE09095BC01CD010895F894FFCF5C
S1130DEC7F008F009F00AE00BC00CA00D600E1005B
S1130DFCEA00F200F800FE00F800F200EA00E1005C
S1130E0CD600CA00BC00AE009F008F007F006F00AC
S1130E1C5F0050004200340028001D0014000C0038
S1130E2C060002000000020006000C0014001D0065
S1130E3C28003400420050005F006F00800064649E
S1050E4C64003C
S9030000FC
