:100000000C942A000C94CA010C94F1010C9418026F
:100010000C9419030C9457030C9496030C9447000A
:100020000C9447000C94BD030C949C020C94DA02CF
:100030000C9443020C9411040C9439040C9448045D
:100040000C944F010C9447000C9447000C9447000B
:100050000C94470011241FBECFE5D8E0DEBFCDBF12
:1000600010E0A0E6B0E0E8EAF8E002C005900D92EA
:10007000A036B107D9F723E0A0E6B0E001C01D9299
:10008000AE37B207E1F70E9449000C9452040C9479
:1000900000000E94B3000E94C000FDCFCF93C82F84
:1000A0008B3311F41092620080916200882359F022
:1000B000C093510382E50E9400048BE20E94000479
:1000C0008DE20E940004C33219F481E08093620043
:1000D000CF910895CF93982F9F7082958F709C3009
:1000E00071F030F49A30A1F09B3079F4C2E411C081
:1000F0009E3049F030F09F3041F4C6E40AC0C3E4BA
:1001000008C0C4E406C0C5E404C0C0E3C90F01C010
:10011000C1E48C3071F030F48A3099F08B3079F48E
:1001200082E410C08E3049F030F08F3041F486E424
:1001300009C083E407C084E405C085E403C0805D92
:1001400001C081E40E9400048C2FCF910C94000424
:1001500080E687B986B1826C86B90895369A349B59
:10016000FECF85B108950E94E4030E943F020E94E1
:10017000A80081E00E946B028EE490E00C940404DD
:10018000CF9380915203813041F120F0823009F405
:1001900076C083C0C09161000E94AE00EC2FF0E0F9
:1001A000E95AFD4F8083C09161000E949902EC2FB3
:1001B000F0E0EE0FFF1FED59FF4F91838083809198
:1001C00061008F5F80936100809161008A3F08F435
:1001D00064C081E08093520360C08091600081110F
:1001E00009C08EE70E9400048BE20E9400048DE2A9
:1001F0000E940004E0916000F0E0E95AFD4F808128
:100200000E946A008BE20E9400048DE20E940004BA
:10021000E0916000F0E0EE0FFF1FED59FF4F81818C
:100220000E946A00E0916000F0E0EE0FFF1FED59C0
:10023000FF4F80810E946A008BE20E9400048DE2E1
:100240000E940004809160008F5F809360008A3F6D
:1002500021F581E50E9400048BE20E9400048DE2FA
:100260000E9400041092600080915103833459F081
:1002700082E08093520383E5809351030EC0809106
:100280005103843451F4109252031092610060E0E3
:1002900070E081E0CF910C948C02CF9108951F9271
:1002A0000F920FB60F9211242F933F934F935F93AA
:1002B0006F937F938F939F93AF93BF93EF93FF932E
:1002C00084B195B1E0916A03F0916B03099533987D
:1002D000FF91EF91BF91AF919F918F917F916F911E
:1002E0005F914F913F912F910F900FBE0F901F90F4
:1002F0001895242F8130C1F028F0823039F18330F5
:10030000B9F1089541E050E0062E01C0440F0A946F
:10031000EAF740958AB38423422F01C0440F6A95BF
:10032000EAF7482B4ABB089581E090E0062E01C011
:10033000880F0A94EAF7809547B38423422F01C0BF
:10034000440F6A95EAF7482B47BB089581E090E097
:10035000062E01C0880F0A94EAF7809544B38423DF
:10036000422F01C0440F6A95EAF7482B44BB089519
:1003700081E090E0062E01C0880F0A94EAF780958C
:1003800041B38423422F01C0440F6A95EAF7482BFA
:1003900041BB08951F920F920FB60F9211242F9315
:1003A0003F934F935F936F937F938F939F93AF93FD
:1003B000BF93EF93FF93E0915703F0915803099592
:1003C000FF91EF91BF91AF919F918F917F916F912D
:1003D0005F914F913F912F910F900FBE0F901F9003
:1003E00018951F920F920FB60F9211242F933F93DF
:1003F0004F935F936F937F938F939F93AF93BF932D
:10040000EF93FF93E0915503F09156030995FF9107
:10041000EF91BF91AF919F918F917F916F915F917C
:100420004F913F912F910F900FBE0F901F901895F5
:100430001F920F920FB60F9211242F933F934F9359
:100440005F936F937F938F939F93AF93BF93EF933C
:10045000FF93E0915303F09154030995FF91EF91BD
:10046000BF91AF919F918F917F916F915F914F91CC
:100470003F912F910F900FBE0F901F9018958FB73F
:1004800080688FBF08951F920F920FB60F921124AC
:100490002F933F934F935F936F937F938F939F938C
:1004A000AF93BF93EF93FF938FB1E0916C03F09103
:1004B0006D030995FF91EF91BF91AF919F918F913E
:1004C0007F916F915F914F913F912F910F900FBE50
:1004D0000F901F901895813071F018F0823031F034
:1004E000089583B780788A6783BF089585B580783B
:1004F0008F6685BD08958FB58F738FBD8FB58F7C47
:100500008FBD8EB5887F83608EBD8FB58C7F8FBD8C
:100510008EB5877E8EBD0895813041F018F082300F
:1005200019F0089562BF089564BD08957DBD6CBD46
:1005300008958CB59DB508951F920F920FB60F9236
:1005400011242F933F934F935F936F937F938F93D8
:100550009F93AF93BF93EF93FF9380916503909127
:100560006603A0916703B09168030196A11DB11DB8
:100570008093650390936603A0936703B093680329
:10058000892B8A2B8B2B29F4E0917403F09175034E
:100590000995FF91EF91BF91AF919F918F917F91BD
:1005A0006F915F914F913F912F910F900FBE0F90E0
:1005B0001F9018951F920F920FB60F9211242F9330
:1005C0003F934F935F936F937F938F939F93AF93DB
:1005D000BF93EF93FF938091610390916203A09189
:1005E0006303B09164030196A11DB11D8093610363
:1005F00090936203A0936303B0936403892B8A2BC7
:100600008B2B31F412BEE0916E03F0916F030995CC
:10061000FF91EF91BF91AF919F918F917F916F91DA
:100620005F914F913F912F910F900FBE0F901F90B0
:1006300018951F920F920FB60F9211242F933F938C
:100640004F935F936F937F938F939F93AF93BF93DA
:10065000EF93FF9380915D0390915E03A0915F0300
:10066000B09160030196A11DB11D80935D0390932D
:100670005E03A0935F03B0936003892B8A2B8B2BBF
:1006800029F4E0917203F09173030995FF91EF91C2
:10069000BF91AF919F918F917F916F915F914F919A
:1006A0003F912F910F900FBE0F901F9018951F92A2
:1006B0000F920FB60F9211242F933F934F935F9396
:1006C0006F937F938F939F93AF93BF93EF93FF931A
:1006D0008091590390915A03A0915B03B0915C0300
:1006E0000196A11DB11D8093590390935A03A093C5
:1006F0005B03B0935C03892B8A2B8B2B31F414BCE6
:10070000E0917603F09177030995FF91EF91BF9106
:10071000AF919F918F917F916F915F914F913F9199
:100720002F910F900FBE0F901F9018951F920F9250
:100730000FB60F9211242F933F934F935F936F93B4
:100740007F938F939F93AF93BF93EF93FF93E0912A
:100750007A03F0917B030995FF91EF91BF91AF91DF
:100760009F918F917F916F915F914F913F912F91C9
:100770000F900FBE0F901F9018951F920F920FB6FB
:100780000F9211242F933F934F935F936F937F9317
:100790008F939F93AF93BF93EF93FF93E091780371
:1007A000F09179030995FF91EF91BF91AF919F91DE
:1007B0008F917F916F915F914F913F912F910F900A
:1007C0000FBE0F901F90189583E389B910BC80B5B8
:1007D0008F74806880BD80B58777806880BD80B564
:1007E000866880BD529840E060E083E00E94790115
:1007F00041E061E083E00E947901549A539A0895A0
:100800005D9BFECF8CB90895CF93DF93EC010E94DE
:100810003F02579AD0937D03C0937C03DF91CF9121
:1008200008951F920F920FB60F9211242F933F93AA
:100830004F935F936F937F938F939F93AF93BF93E8
:10084000EF93FF938CB1E0917C03F0917D030995C8
:10085000FF91EF91BF91AF919F918F917F916F9198
:100860005F914F913F912F910F900FBE0F901F906E
:1008700018951F920F920FB60F9211248F938091AB
:1008800069038CB98F910F900FBE0F901F90189530
:100890001F920F920FB60F9211240F900FBE0F9060
:0808A0001F901895F894FFCF9A
:00000001FF
