S0120000536D61727420486F6D652E7372656362
S11300000C942A000C94C9090C94F0090C94170A56
S11300100C942E0C0C94570C0C94530B0C947C0BDA
S11300200C94A50B0C94CE0B0C94A80A0C94D10A36
S11300300C9447000C94B80C0C94E30C0C940C0D29
S11300400C9413080C9447000C9447000C9447003C
S11300500C94470011241FBECFE5D8E0DEBFCDBF0E
S113006010E0A0E6B0E0E6EAF0E202C005900D92EE
S1130070AC3DB107D9F721E0ACEDB0E001C01D9271
S1130080A833B207E1F70E9491040C9451100C9428
S113009000008F929F92AF92BF92CF92DF92EF9225
S11300A0FF92CF93DF93CFEDD0E0888199810E94B6
S11300B0BF0790E0998388838A819B810E944C07C3
S11300C09B838A8360E080E00E942C07888099806B
S11300D0940140E050E060E070E080E090E00E9435
S11300E0370760E081E00E942C078A819B819C0194
S11300F040E050E060E070E080E090E00E9437076C
S113010066E081E0DF91CF91FF90EF90DF90CF9098
S1130110BF90AF909F908F900C942C07CF93982F03
S11301209F7082958F709C3071F030F49A30A1F0FA
S11301309B3079F4C2E411C09E3049F030F09F3016
S113014041F4C6E40AC0C3E408C0C4E406C0C5E47C
S113015004C0C0E3C90F01C0C1E48C3071F030F4B5
S11301608A3099F08B3079F482E410C08E3049F0F3
S113017030F08F3041F486E409C083E407C084E49E
S113018005C085E403C0805D01C081E40E94B4041D
S11301908C2FCF910C94B404CF93809162008F364E
S11301A009F446C040E067E081E00E94CD0884E69F
S11301B0809362000E946A0A0E9423078FE99FE0ED
S11301C00197F1F700C0000086E790E00E94100755
S11301D09FE72AE186E0915020408040E1F700C08B
S11301E000000E9423078FE99FE00197F1F700C008
S11301F00000C3E065E080E00E942C0780E890E006
S11302000E9410079FEF20E782E091502040804039
S1130210E1F700C000000E9423079FEF20E782E07F
S1130220915020408040E1F700C00000C15011F718
S1130230CF9108952FE78AE196E0215080409040C5
S1130240E1F700C000000E9423078FE99FE00197B7
S1130250F1F700C0000087E890E00E94100760E01A
S113026081E00C942C0785B78F7585BF809162005F
S11302708F3609F449C041E067E081E00E94CD086F
S113028086E68093620060E080E00E942C0787E9A4
S113029090E00E9410072FE788E391E0215080400E
S11302A09040E1F700C000008EE20E940E072FEF9D
S11302B080E792E0215080409040E1F700C00000C8
S11302C08EE20E940E072FEF80E792E021508040DB
S11302D09040E1F700C000008EE20E940E072FEF6D
S11302E080E792E0215080409040E1F700C0000098
S11302F00E941A010E94630A4CEC50E060E070E036
S113030080E49FE10C94700A08950F931F93CF9398
S1130310DF9383E50E94B4048BE20E94B4048DE26F
S11303200E94B404C6E2D1E089810E948E008CE26E
S11303300E94B4040FED10E0F80180810E948E0049
S11303408CE20E94B4048B810E948E008CE20E9495
S1130350B4048D810E948E008CE20E94B40480E07B
S11303600E948E00F80182810E948E008CE20E941D
S1130370B4048E810E948E008CE20E94B4048C81AD
S11303800E948E008CE20E94B40488810E948E0038
S11303908CE20E94B4048A810E948E0080EA90E07C
S11303A0DF91CF911F910F910C94B9041F93CF93B8
S11303B0DF9341E060E082E00E947C0840E060E07E
S11303C082E00E94CD0841E062E080E00E947C0867
S11303D040E062E080E00E94CD0841E067E081E017
S11303E00E947C0840E067E081E00E94CD0841E083
S11303F067E083E00E947C0840E067E083E00E94BD
S1130400CD0841E061E082E00E947C0840E061E0C8
S113041082E00E94CD0841E062E082E00E947C0814
S113042040E062E082E00E94CD0841E063E082E0C7
S11304300E947C0840E063E082E00E94CD0810E066
S1130440C12FD0E0CE010E949D098137910551F062
S1130450CE010E949D09CA59DF4F88830E94B404CB
S11304601F5FEECF0E949B070E94A60780E00E94B8
S1130470A8070E9498040E949D040E94A10460E0C1
S113048083E391E00E94B40983E694E0DF91CF9185
S11304901F910C94B7048091E1009091E200813D9A
S11304A027E0920718F440E061EF21C0893B2BE07C
S11304B0920740F440E061EF82E00E941E0941E0AF
S11304C061E00FC08938934180F440E061EF82E03D
S11304D00E941E0941E062E082E00E94CD0841E0F2
S11304E063E082E00E94CD0805C041E06EE082E056
S11304F00E941E0967E081E00C946609CF93DF93A4
S1130500CDB7DEB728970FB6F894DEBF0FBECDBFC8
S11305100FE685E6F82E94E0E92E88E0EEE6F0E0BA
S1130520DE01119601900D928A95E1F780916200A7
S1130530863609F0E3C00E94D904182F833209F0EB
S1130540B4C08091650081508093650064EE70E0D2
S113055086E690E00E944810892B31F540E067E080
S113056081E00E94CD080E946A0A0E9423072FEFAF
S113057080E792E0215080409040E1F700C0000005
S113058083EA90E00E9410072FEF89E698E121505A
S113059080409040E1F700C000000E942307F092E1
S11305A06200E092650077C04CEC50E060E070E0DF
S11305B080E49FE10E94700A41E060E082E00E94D2
S11305C0CD082FE788E391E0215080409040E1F787
S11305D000C0000040E060E082E00E94CD082FE708
S11305E088E391E0215080409040E1F700C0000092
S11305F041E060E082E00E94CD082FE788E391E0CB
S1130600215080409040E1F700C0000040E060E0ED
S113061082E00E94CD080E9423072FEF80E792E03A
S1130620215080409040E1F700C000008FEA90E044
S11306300E9410072FEF84E39CE0215080409040FB
S1130640E1F700C0000080916500813011F50E943F
S113065023072FEF80E792E0215080409040E1F79C
S113066000C0000041E060E082E00E94CD0880EC20
S113067090E00E9410072FEF83ED90E3215080401B
S11306809040E1F700C000000E942307009362003D
S113069002C00E941A011092E300E4EEF0E011920D
S11306A020E0EC3EF207D9F738CF8F3F09F435CF7D
S11306B04CEC50E060E070E080E49FE10E94700A3E
S11306C041E060E082E00E94CD088FE493EC019762
S11306D0F1F700C0000040E060E082E00E94CD0835
S11306E08091E300E82FF0E0EC51FF4F10838F5F1F
S11306F08093E3008AE20E940E070FCF853609F04B
S11307000CCFCE0101960E94E3079FEF20E782E021
S1130710915020408040E1F700C000000E944B024D
S1130720FCCE8091DF009091E0008A30910518F4AE
S11307308AE090E023C08F30910518F484E190E0C2
S11307401DC08431910518F48EE190E017C0893101
S1130750910518F488E290E011C08E31910518F4E7
S11307608CE390E00BC08332910518F480E590E0AF
S113077005C08436910520F484E690E00C94A1042D
S11307800895CF92DF92EF92FF920F931F93CF932E
S113079080912E01863609F441C018F4833681F025
S11307A053C0873619F08C36D9F04EC080912D0194
S11307B0823711F481E001C080E00E94A80744C0A0
S11307C080912D01823711F441E001C040E067E0DF
S11307D083E00E94CD0880912D018093280134C0CC
S11307E080912F01853631F482E3809360000E946A
S11307F04B020FC083E38093600080912D01823708
S113080019F441E06EE002C040E061EF82E00E9432
S11308101E0980912D0180932C0116C080912F0117
S1130820853631F482E3809361000E9491030CC009
S113083083E38093610080912D01823719F40E9433
S11308409D0402C00E949F0480912D01803799F578
S1130850C1E00C2F10E0F801E35DFE4F8081813789
S113086031F0F801EB59FF4F8083CF5FF2CF86E67A
S1130870C82E80E0D82EE12CF12CEC1658F4F601A9
S113088061916F0170E0C7010E949609FFEFEF1AB2
S1130890FF0AF3CF61E770E0C8010E94960900E007
S11308A010E00C1740F4C8010E949D090E94B40492
S11308B00F5F1F4FF6CFCF911F910F91FF90EF90D5
S11308C0DF90CF900895CF93DF93EC01CB9779F429
S11308D01092DD001092DC0081E08093DE000E9423
S11308E0C1030E94850167E081E00E94660980914E
S11308F0DD00813061F4C032D10581F0E091DC008B
S11309008E0F8093DC00F0E0E35DFE4FC083A3977D
S113091029F481E08093DD001092DE00DF91CF9115
S113092008950E94420A0E94D6010E947E02FDCFD1
S11309300E94120B89E10C943F0B0C94380B0C941D
S1130940380B853614F40C943F0B089541E066E0AF
S113095083E00E947C0841E066E083E00E94CD08C9
S113096083E390E00C94800C90E00C94980C0C942D
S1130970B30C0C949C0CCF93C0E041E06C2F81E04D
S11309800E947C0840E06C2F81E00E94CD08CF5F7C
S1130990C33099F740E06C2F81E00E947C0841E06D
S11309A06C2F81E00E94CD08CF5FC73099F7CF91BB
S11309B00895FF920F931F93CF93DF93C0E0D0E08D
S11309C00FEFFC2E40E06C2F81E00E94CD0813E075
S11309D0612F81E00E944E0981111CC0612F81E0CA
S11309E00E944E098823D1F3612F70E0635071098E
S11309F0FB01EE0FFF1FE60FF71FE053FF4FEC0F55
S1130A00FD1F00818FE39CE90197F1F700C000000E
S1130A1011E004C01F5F1730D9F610E041E06F2DDC
S1130A2081E00E94CD08113021F02196C330D10518
S1130A3041F6802FDF91CF911F910F91FF90089580
S1130A402F923F924F925F926F927F928F929F92DA
S1130A50AF92BF92CF92DF92EF92FF920F931F93C8
S1130A60CF93DF93CDB7DEB761970FB6F894DEBFAF
S1130A700FBECDBF922E832E742E652E562E472E7A
S1130A80382E292E9E012F5F3F4F3C872B878AE00B
S1130A90F90111928A95E9F7292D382D832DA0E0CB
S1130AA00E943C1084F48DE28983832D0E94F50F0B
S1130AB0922E832E742E652E562E472E382E292ED6
S1130AC0F1E0FD8701C01D863D85232F30E03F877F
S1130AD02E8761E070E06C0F7D1F620F731F798BAE
S1130AE0688B8AE0A82EB12CC12CD12CE12CF12CDE
S1130AF000E010E0292D382D472D562D652D742D3D
S1130B00832D922D0E94650F205DE889F989208349
S1130B10292D382D472D562D652D742D832D922D7D
S1130B200E94670F922E832E742E652E562E472E0A
S1130B30382E292EA0E00E943C1031F4EE85FF856A
S1130B40EC0FFD1F128206C0FD85FF5FFD87F930A3
S1130B5009F0BACF89818D3221F48093EC0031E021
S1130B6001C030E0232F4D85842F90E0622F631B5A
S1130B70422F022E000C550B84179507ACF0DA01B6
S1130B80A451BF4FFC01E61BF10961E070E06C0F5A
S1130B907D1FE60FF71F60816C934817590711F406
S1130BA011961C922F5FE2CF8CEE90E061960FB607
S1130BB0F894DEBF0FBECDBFDF91CF911F910F918F
S1130BC0FF90EF90DF90CF90BF90AF909F908F9069
S1130BD07F906F905F904F903F902F900895CF93A8
S1130BE0C82F40E067E080E00E94CD0840E064E068
S1130BF080E00E94CD0841E066E080E00E94CD08DC
S1130C00C4FB442740F964E082E00E94CD08C5FBA0
S1130C10442740F965E082E00E94CD08C6FB4427E2
S1130C2040F966E082E00E94CD084C2F441F44271F
S1130C30441F67E082E00E94CD0840E066E080E067
S1130C400E94CD0841E066E080E00E94CD084C2F70
S1130C50417064E082E00E94CD08C1FB442740F962
S1130C6065E082E00E94CD08C2FB442740F966E0BB
S1130C7082E00E94CD08C3FB442740F967E082E08C
S1130C800E94CD0840E066E080E0CF910C94CD084E
S1130C90CF93C82F41E066E080E00E94CD0841E098
S1130CA067E080E00E94CD0840E064E080E00E94BC
S1130CB0CD08C4FB442740F964E082E00E94CD08DB
S1130CC0C5FB442740F965E082E00E94CD08C6FBDD
S1130CD0442740F966E082E00E94CD084C2F441F6F
S1130CE04427441F67E082E00E94CD0840E066E0AC
S1130CF080E00E94CD0841E066E080E00E94CD08DB
S1130D004C2F417064E082E00E94CD08C1FB44276F
S1130D1040F965E082E00E94CD08C2FB442740F917
S1130D2066E082E00E94CD08C3FB442740F967E0F7
S1130D3082E00E94CD0840E066E080E00E94CD0899
S1130D4083E08A95F1F70000CF9108958BE49DE14B
S1130D500197F1F700C0000041E066E080E00E94E6
S1130D607C0841E064E080E00E947C0841E067E0A8
S1130D7080E00E947C0841E064E082E00E947C08FC
S1130D8041E065E082E00E947C0841E066E082E0A8
S1130D900E947C0841E067E082E00E947C0840E019
S1130DA067E080E00E94CD0840E064E080E00E94BB
S1130DB0CD0841E066E080E00E94CD0840E064E0B8
S1130DC082E00E94CD0841E065E082E00E94CD0807
S1130DD040E066E082E00E94CD0840E067E082E007
S1130DE00E94CD0840E066E080E00E94CD0888E2E1
S1130DF00E94EF059DE09A95F1F78CE00E94EF05C3
S1130E008DE08A95F1F781E00E94EF058EE791E08D
S1130E100197F1F7000086E00C94EF050C94480666
S1130E200F931F93CF938C01C0E0F801EC0FF11DD9
S1130E308081882321F00E944806CF5FF6CFCF91AE
S1130E401F910F91089581E00E94EF058EE791E0D4
S1130E500197F1F700000895882319F0813019F003
S1130E60089580E801C080EC860F0C94EF050F9381
S1130E701F93CF930E9420058C01C0E0F801EC0F72
S1130E80F11D8081882321F00E944806CF5FF6CFB0
S1130E90CF911F910F910895CF92DF92EF92FF921D
S1130EA00F931F939C01A8E8B3E10E944B0F2FEF0F
S1130EB033E040E050E00E94290F69017A01A8EE76
S1130EC0B3E00E945A0F08E813E120E030E0A901E2
S1130ED098012C193D094E095F090E94290FC90187
S1130EE01F910F91FF90EF90DF90CF900895809124
S1130EF0F7008F5F8093F7009091F80089130BC07F
S1130F0040E063E080E00E94CD089091F60080EE1E
S1130F10891B0E94270C8091F7008E3459F441E01C
S1130F2063E080E00E94CD088091F6000E94270CC7
S1130F301092F70008950E94140C41E063E080E0F1
S1130F400E947C0887E797E00C94290C0C94200CF1
S1130F50882319F0813041F0089582E18093F600EE
S1130F600E94270C82E006C08CE38093F6000E9466
S1130F70270C89E08093F80008950C94CC079C0119
S1130F80A4EFB1E00E944B0F2FEF33E040E050E0BC
S1130F900E94290F822F089540E060E080E00E94C3
S1130FA07C0840E061E080E00E947C0886B1887F94
S1130FB086B986B1876086B9359887B18F718064A8
S1130FC087B9379A0895FC0189EC8093F9008081F0
S1130FD09181909300018093FF008281938190938B
S1130FE0FE008093FD00848195819093FC008093A2
S1130FF0FB008681978190930201809301011092F6
S1131000FA0087B1807E87B99091FA00E091FF00E1
S1131010F0910001E90FF11D9081892B87B986B108
S1131020886486B908951F920F920FB60F92112407
S11310302F933F934F935F936F937F938F939F93DC
S1131040AF93BF93EF93FF938091F900883C69F4C9
S1131050E0910301F09104013097E9F184B195B175
S1131060909301008093000011C0893CA1F5209168
S1131070FA00822F90E04091FB005091FC00481749
S1131080590739F4E0910101F0910201099533986F
S113109022C044B155B1880F991FE091FD00F09131
S11310A0FE00E80FF91F518340832F5F2093FA005D
S11310B067E083E00E94660987B1807E87B99091DA
S11310C0FA00E091FF00F0910001E90FF11D908119
S11310D0892B87B9369AFF91EF91BF91AF919F9178
S11310E08F917F916F915F914F913F912F910F90CD
S11310F00FBE0F901F901895242F8130C1F028F057
S1131100823039F18330B9F1089541E050E0062E80
S113111001C0440F0A94EAF740958AB38423422F0E
S113112001C0440F6A95EAF7482B4ABB089581E051
S113113090E0062E01C0880F0A94EAF7809547B321
S11311408423422F01C0440F6A95EAF7482B47BB1A
S1131150089581E090E0062E01C0880F0A94EAF712
S1131160809544B38423422F01C0440F6A95EAF763
S1131170482B44BB089581E090E0062E01C0880FFF
S11311800A94EAF7809541B38423422F01C0440FA7
S11311906A95EAF7482B41BB0895242F8130C1F0AA
S11311A028F0823039F18330B9F1089541E050E0FC
S11311B0062E01C0440F0A94EAF740958BB38423AA
S11311C0422F01C0440F6A95EAF7482B4BBB0895A0
S11311D081E090E0062E01C0880F0A94EAF780951A
S11311E048B38423422F01C0440F6A95EAF7482B81
S11311F048BB089581E090E0062E01C0880F0A9450
S1131200EAF7809545B38423422F01C0440F6A95C1
S1131210EAF7482B45BB089581E090E0062E01C013
S1131220880F0A94EAF7809542B38423422F01C0C1
S1131230440F6A95EAF7482B42BB08954130A1F464
S1131240813049F028F0823049F0833051F008951C
S11312508BB3682B15C088B3682B16C085B3682B75
S113126017C082B3682B18C0411117C0813051F0E8
S113127028F0823059F0833069F008958BB36823E5
S11312806BBB089588B3682368BB089585B368234E
S113129065BB089582B3682362BB0895813049F029
S11312A030F0823041F0833079F480B305C089B3E3
S11312B003C086B301C083B390E002C095958795BF
S11312C06A95E2F7982F9170892F0895813081F003
S11312D028F08230B9F08330F9F0089581E090E08D
S11312E001C0880F6A95EAF79BB389278BBB0895E1
S11312F081E090E001C0880F6A95EAF798B38927E6
S113130088BB089581E090E001C0880F6A95EAF7F0
S113131095B3892785BB089581E090E001C0880FCB
S11313206A95EAF792B3892782BB0895E199FECFC3
S11313308EBB6DBBE29AE19A0895E199FECF8EBB14
S1131340E09A8DB3089540E062E083E00E947C0857
S113135041E062E083E00E94CD088BB780648BBFDC
S113136085B7836085BF0895613049F018F0623015
S113137059F0089590933501809334010895909322
S1131380330180933201089590933701809336019D
S113139008951F920F920FB60F9211242F933F932B
S11313A04F935F936F937F938F939F93AF93BF9369
S11313B0EF93FF93E0913401F09135010995FF918A
S11313C0EF91BF91AF919F918F917F916F915F91B9
S11313D04F913F912F910F900FBE0F901F90189532
S11313E01F920F920FB60F9211242F933F934F9396
S11313F05F936F937F938F939F93AF93BF93EF9379
S1131400FF93E0913201F09133010995FF91EF913F
S1131410BF91AF919F918F917F916F915F914F9108
S11314203F912F910F900FBE0F901F9018951F9210
S11314300F920FB60F9211242F933F934F935F9304
S11314406F937F938F939F93AF93BF93EF93FF9388
S1131450E0913601F09137010995FF91EF91BF9129
S1131460AF919F918F917F916F915F914F913F9138
S11314702F910F900FBE0F901F9018958FB7806813
S11314808FBF08950E94BD070E94A6040E94A6066D
S11314900E94BB040E943E0A0E94520A0E94A309B1
S11314A00C94120B83B7877B83BF83B783BF89B741
S11314B0816089BF83B78F7C83BF83B783BF83B7C2
S11314C08F7783BF089583B7887F83BF83B7856091
S11314D083BF089583B7887F83BF83B783BF08958D
S11314E0CF92DF92EF92FF92CF93DF93EA011092B3
S11314F0060110920501BC0180E090E00E945A0EA2
S11315002FE632E143E052E40E94B90D6B017C0105
S11315100E94A20D0E942B0E709309016093080192
S1131520D0930D01C0930C0180E090E00E945A0E0C
S1131530A70196010E94350D0E942B0E62BF609395
S11315400701DF91CF91FF90EF90DF90CF90089546
S11315501F920F920FB60F9211242F933F934F9324
S11315605F936F937F938F939F93AF93BF93EF9307
S1131570FF93E0910A01F0910B01309709F009956E
S1131580FF91EF91BF91AF919F918F917F916F9157
S11315905F914F913F912F910F900FBE0F901F902D
S11315A018951F920F920FB60F9211242F933F9309
S11315B04F935F936F937F938F939F93AF93BF9357
S11315C0EF93FF93E0910C01F0910D013097C9F076
S11315D08091050190910601209108013091090143
S11315E08217930749F41092060110920501099598
S11315F08091070182BF05C00196909306018093F4
S11316000501FF91EF91BF91AF919F918F917F91D0
S11316106F915F914F913F912F910F900FBE0F905B
S11316201F9018958FB58E7F8FBD8FB582608FBD4B
S11316308EB588618EBD8FB580688FBD8FB58F7B69
S11316408FBD41E065E083E00E947C088FB5806235
S11316508FBD8FB58F7E8FBD41E064E083E00E9433
S11316607C088FB58B7F8FBD8FB5877F8FBD089525
S11316708EB5887F8EBD8EB585608EBD0895682F2A
S113168070E071956195710980E090E00E945A0EB6
S113169020E030E048EC52E40E94B90D0E942B0E89
S11316A079BD68BD08951F920F920FB60F92112451
S11316B02F933F934F935F936F937F938F939F9356
S11316C0AF93BF93EF93FF93E0911401F091150151
S11316D0309709F00995FF91EF91BF91AF919F91D8
S11316E08F917F916F915F914F913F912F910F90C7
S11316F00FBE0F901F9018951F920F920FB60F9266
S113170011242F933F934F935F936F937F938F9302
S11317109F93AF93BF93EF93FF93E0911801F091E0
S11317201901309709F00995FF91EF91BF91AF919D
S11317309F918F917F916F915F914F913F912F91E5
S11317400F900FBE0F901F9018951F920F920FB617
S11317500F9211242F933F934F935F936F937F9333
S11317608F939F93AF93BF93EF93FF93E0911601F1
S1131770F0911701309709F00995FF91EF91BF910E
S1131780AF919F918F917F916F915F914F913F9115
S11317902F910F900FBE0F901F9018951F920F92CC
S11317A00FB60F9211242F933F934F935F936F9330
S11317B07F938F939F93AF93BF93EF93FF93E091A6
S11317C01A01F0911B013097F1F080910E01909174
S11317D00F0120911201309113018217930771F4C4
S11317E081E090E090930F0180930E010995809120
S11317F01001909111019DBD8CBD05C0019690937F
S11318000F0180930E01FF91EF91BF91AF919F91D2
S11318108F917F916F915F914F913F912F910F9095
S11318200FBE0F901F90189585B5877B85BD85B534
S113183085BD89B7806489BF85B58F7785BD0895D7
S113184085B5887F85BD85B5826085BD089584BDD5
S1131850089590931F0180931E0108951F920F9283
S11318600FB60F9211242F933F934F935F936F936F
S11318707F938F939F93AF93BF93EF93FF93E091E5
S11318801C01F0911D01309709F00995FF91EF912A
S1131890BF91AF919F918F917F916F915F914F9184
S11318A03F912F910F900FBE0F901F9018951F928C
S11318B00F920FB60F9211242F933F934F935F9380
S11318C06F937F938F939F93AF93BF93EF93FF9304
S11318D0E0911E01F0911F01309709F00995FF91E5
S11318E0EF91BF91AF919F918F917F916F915F9194
S11318F04F913F912F910F900FBE0F901F9018950D
S11319001AB82AB128692AB920E820BD20B5206870
S113191020BD20B5266820BD90BD89B941E061E0B5
S113192083E00E947C0840E060E083E00C947C0843
S11319305D9BFECF8CB908950F931F93CF938C01B9
S1131940C0E0F801EC0FF11D8081882329F090E0BC
S11319500E94980CCF5FF5CF80E090E0CF911F916B
S11319600F910C94980C9093250180932401089571
S11319701F920F920FB60F9211242F933F934F9300
S11319805F936F937F938F939F93AF93BF93EF93E3
S1131990FF93E0912401F0912501309719F08CB167
S11319A090E00995FF91EF91BF91AF919F918F9135
S11319B07F916F915F914F913F912F910F900FBE47
S11319C00F901F9018951F920F920FB60F9211242B
S11319D02F933F934F935F936F937F938F939F9333
S11319E0AF93BF93EF93FF93E0912001F091210116
S11319F0309709F00995FF91EF91BF91AF919F91B5
S1131A008F917F916F915F914F913F912F910F90A3
S1131A100FBE0F901F9018951F920F920FB60F9242
S1131A2011242F933F934F935F936F937F938F93DF
S1131A309F93AF93BF93EF93FF93E0912201F091B3
S1131A402301309709F00995FF91EF91BF91AF9170
S1131A509F918F917F916F915F914F913F912F91C2
S1131A600F900FBE0F901F9018955058BB27AA27B0
S1131A700E944D0D0C94D70E0E94C90E38F00E949E
S1131A80D00E20F039F49F3F19F426F40C94C60EBE
S1131A900EF4E095E7FB0C94970EE92F0E94E80EF4
S1131AA058F3BA17620773078407950720F079F48F
S1131AB0A6F50C94220F0EF4E0950B2EBA2FA02D50
S1131AC00B01B90190010C01CA01A0011124FF27E7
S1131AD0591B99F0593F50F4503E68F11A16F040E2
S1131AE0A22F232F342F4427585FF3CF46953795E1
S1131AF02795A795F0405395C9F77EF41F16BA0BA6
S1131B00620B730B840BBAF09150A1F0FF0FBB1F53
S1131B10661F771F881FC2F70EC0BA0F621F731F9C
S1131B20841F48F4879577956795B795F7959E3FF9
S1131B3008F0B0CF9395880F08F09927EE0F97958A
S1131B40879508950E940A0F90F09F3748F49111E9
S1131B5016F40C94230F60E070E080E89FE308958E
S1131B6026F01B16611D711D811D0C949D0E0C9495
S1131B70B80E0E94CD0D0C94D70E0E94D00E58F0D2
S1131B800E94C90E40F029F45F3F29F00C94970E8F
S1131B9051110C94230F0C94C60E0E94E80E68F3A6
S1131BA09923B1F3552391F3951B550BBB27AA2712
S1131BB062177307840738F09F5F5F4F220F331F4C
S1131BC0441FAA1FA9F335D00E2E3AF0E0E832D014
S1131BD091505040E695001CCAF72BD0FE2F29D017
S1131BE0660F771F881FBB1F261737074807AB07E9
S1131BF0B0E809F0BB0B802DBF01FF2793585F4F5E
S1131C003AF09E3F510578F00C94970E0C94230FF4
S1131C105F3FE4F3983ED4F3869577956795B7953F
S1131C20F7959F5FC9F7880F911D9695879597F94A
S1131C300895E1E0660F771F881FBB1F62177307C3
S1131C408407BA0720F0621B730B840BBA0BEE1FD8
S1131C5088F7E09508950E94F00E88F09F5798F059
S1131C60B92F9927B751B0F0E1F0660F771F881F9D
S1131C70991F1AF0BA95C9F714C0B13091F00E94B7
S1131C80220FB1E008950C94220F672F782F882734
S1131C90B85F39F0B93FCCF3869577956795B395DE
S1131CA0D9F73EF490958095709561957F4F8F4F4D
S1131CB09F4F0895E89409C097FB3EF49095809552
S1131CC0709561957F4F8F4F9F4F9923A9F0F92FFE
S1131CD096E9BB279395F695879577956795B7957C
S1131CE0F111F8CFFAF4BB0F11F460FF1BC06F5F62
S1131CF07F4F8F4F9F4F16C0882311F096E911C074
S1131D00772321F09EE8872F762F05C0662371F094
S1131D1096E8862F70E060E02AF09A95660F771FA8
S1131D20881FDAF7880F9695879597F9089597F99C
S1131D309F6780E870E060E00895882371F477235A
S1131D4021F09850872B762F07C0662311F499272A
S1131D500DC09051862B70E060E02AF09A95660FD2
S1131D60771F881FDAF7880F9695879597F9089556
S1131D709F3F31F0915020F4879577956795B795FB
S1131D80880F911D9695879597F908959FEF80EC9C
S1131D90089500240A9416161706180609060895CD
S1131DA000240A9412161306140605060895092E33
S1131DB00394000C11F4882352F0BB0F40F4BF2BA2
S1131DC011F460FF04C06F5F7F4F8F4F9F4F0895E2
S1131DD057FD9058440F551F59F05F3F71F04795D8
S1131DE0880F97FB991F61F09F3F79F087950895BD
S1131DF0121613061406551FF2CF4695F1DF08C0DC
S1131E00161617061806991FF1CF869571056105F8
S1131E10089408950E94F00EA0F0BEE7B91788F464
S1131E20BB279F3860F41616B11D672F782F8827BB
S1131E30985FF7CF869577956795B11D93959639F9
S1131E40C8F30895E894BB2766277727CB0197F951
S1131E500895A1E21A2EAA1BBB1BFD010DC0AA1FE7
S1131E60BB1FEE1FFF1FA217B307E407F50720F0FF
S1131E70A21BB30BE40BF50B661F771F881F991F7A
S1131E801A9469F760957095809590959B01AC01C3
S1131E90BD01CF010895A29FB001B39FC001A39FCC
S1131EA0700D811D1124911DB29F700D811D11248F
S1131EB0911D08950E944B0FA59F900DB49F900D06
S1131EC0A49F800D911D11240895689401C0E89485
S1131ED0F92FF12B12F00C94990FA0E0B0E0E3E796
S1131EE0FFE00C940B10092E059422F40E94F50FC8
S1131EF0112392F4F0E80F26FFEFE094F09400959C
S1131F001095B094C094D094A194BF0ACF0ADF0A6C
S1131F10EF0AFF0A0F0B1F0B0E94A40F07FC0E947D
S1131F20F50FCDB7DEB7ECE00C942710689401C030
S1131F30E8948F929F92CF93DF930E94A40FDF9136
S1131F40CF919F908F90089588249924F401E401FF
S1131F50B0E49F93AA279A158B049C04ED05FE0513
S1131F60CF05D007A10798F4AD2FDC2FCF2FFE2F7C
S1131F70E92D982C892E982F872F762F652F542F93
S1131F80432F322F2227B85031F7BF9127C01B2E81
S1131F90BF91BB27220F331F441F551F661F771F96
S1131FA0881F991F881C991CEE1FFF1FCC1FDD1F63
S1131FB0AA1FBB1F8A149B04EC05FD05CE05DF0593
S1131FC0A007B10748F08A189B08EC09FD09CE095F
S1131FD0DF09A00BB10B21601A94E1F62EF49401F1
S1131FE0AF01BE01CD01000C0895609570958095F8
S1131FF0909530954095509521953F4F4F4F5F4FA9
S11320006F4F7F4F8F4F9F4F08952F923F924F9264
S11320105F926F927F928F929F92AF92BF92CF9274
S1132020DF92EF92FF920F931F93CF93DF93CDB77D
S1132030DEB7CA1BDB0B0FB6F894DEBF0FBECDBFF5
S113204009942A88398848885F846E847D848C84C6
S11320509B84AA84B984C884DF80EE80FD800C81CF
S11320601B81AA81B981CE0FD11D0FB6F894DEBFB2
S11320700FBECDBFED0108950024A7FD00942A17DB
S113208030054005500560057005800590050895EC
S1132090FB01DC018D91019080190110D9F3990B9A
S10920A00895F894FFCF3F
S11320A6333364000104313233340000000063002A
S11320B6DF00020049004220592045202E2E2E0022
S11320C620212021202100456E7465722050617301
S11320D673776F72643A0057656C636F6D652000A1
S11320E62B2D0057454C434F4D45202121210057A8
S11320F6726F6E672050617373776F72642021006C
S113210653797374656D204C6F636B446F776E00FF
S10F21163132333435363738392A30235F
S9030000FC
